{
  "contractName": "PXLProperty_PixelPropertyAccess_UnitTests",
  "abi": [
    {
      "constant": false,
      "inputs": [],
      "name": "setPropertyPrivateMode_Test",
      "outputs": [
        {
          "name": "",
          "type": "bool"
        }
      ],
      "payable": false,
      "stateMutability": "nonpayable",
      "type": "function"
    },
    {
      "constant": false,
      "inputs": [],
      "name": "setPropertyOwner_Test",
      "outputs": [
        {
          "name": "",
          "type": "bool"
        }
      ],
      "payable": false,
      "stateMutability": "nonpayable",
      "type": "function"
    },
    {
      "constant": false,
      "inputs": [],
      "name": "setPropertyLastUpdater_Test",
      "outputs": [
        {
          "name": "",
          "type": "bool"
        }
      ],
      "payable": false,
      "stateMutability": "nonpayable",
      "type": "function"
    },
    {
      "constant": false,
      "inputs": [
        {
          "name": "propertyID",
          "type": "uint16"
        }
      ],
      "name": "setPropertyPrivateModeToBan",
      "outputs": [],
      "payable": false,
      "stateMutability": "nonpayable",
      "type": "function"
    },
    {
      "constant": false,
      "inputs": [],
      "name": "setPropertySalePrice_Test",
      "outputs": [
        {
          "name": "",
          "type": "bool"
        }
      ],
      "payable": false,
      "stateMutability": "nonpayable",
      "type": "function"
    },
    {
      "constant": false,
      "inputs": [],
      "name": "setPropertyLastUpdate_Test",
      "outputs": [
        {
          "name": "",
          "type": "bool"
        }
      ],
      "payable": false,
      "stateMutability": "nonpayable",
      "type": "function"
    },
    {
      "constant": false,
      "inputs": [],
      "name": "setOwnerHoverText_Test",
      "outputs": [
        {
          "name": "",
          "type": "bool"
        }
      ],
      "payable": false,
      "stateMutability": "nonpayable",
      "type": "function"
    },
    {
      "constant": false,
      "inputs": [],
      "name": "setPropertyEarnUntil_Test",
      "outputs": [
        {
          "name": "",
          "type": "bool"
        }
      ],
      "payable": false,
      "stateMutability": "nonpayable",
      "type": "function"
    },
    {
      "constant": false,
      "inputs": [],
      "name": "setPropertyPrivateModeEarnUntilLastUpdateBecomePublic_Test",
      "outputs": [
        {
          "name": "",
          "type": "bool"
        }
      ],
      "payable": false,
      "stateMutability": "nonpayable",
      "type": "function"
    },
    {
      "constant": false,
      "inputs": [],
      "name": "setPropertyBecomePublic_Test",
      "outputs": [
        {
          "name": "",
          "type": "bool"
        }
      ],
      "payable": false,
      "stateMutability": "nonpayable",
      "type": "function"
    },
    {
      "constant": false,
      "inputs": [],
      "name": "setPropertyLastUpdaterLastUpdate_Test",
      "outputs": [
        {
          "name": "",
          "type": "bool"
        }
      ],
      "payable": false,
      "stateMutability": "nonpayable",
      "type": "function"
    },
    {
      "constant": false,
      "inputs": [],
      "name": "setPropertyBecomePublicEarnUntil_Test",
      "outputs": [
        {
          "name": "",
          "type": "bool"
        }
      ],
      "payable": false,
      "stateMutability": "nonpayable",
      "type": "function"
    },
    {
      "constant": false,
      "inputs": [],
      "name": "setPropertyOwnerSalePricePrivateModeFlag_Test",
      "outputs": [
        {
          "name": "",
          "type": "bool"
        }
      ],
      "payable": false,
      "stateMutability": "nonpayable",
      "type": "function"
    },
    {
      "constant": false,
      "inputs": [],
      "name": "rewardPXLburnPXL_Test",
      "outputs": [
        {
          "name": "",
          "type": "bool"
        }
      ],
      "payable": false,
      "stateMutability": "nonpayable",
      "type": "function"
    },
    {
      "inputs": [
        {
          "name": "pxlPropertyAddress",
          "type": "address"
        }
      ],
      "payable": false,
      "stateMutability": "nonpayable",
      "type": "constructor"
    }
  ],
  "bytecode": "0x6060604052341561000f57600080fd5b6040516020806122698339810160405280805160008054600160a060020a03909216600160a060020a03199092169190911790555050612215806100546000396000f3006060604052600436106100b65763ffffffff60e060020a60003504166345a4658b81146100bb57806350ccc67e146100e25780635e79b8ea146100f557806370deb2551461010857806384f2a359146101245780638938124a14610137578063a71aac6d1461014a578063acc2cac61461015d578063b50db38314610170578063df58a2f114610183578063ed83eb0c14610196578063efaa916d146101a9578063f012c7a8146101bc578063f3284ad1146101cf575b600080fd5b34156100c657600080fd5b6100ce6101e2565b604051901515815260200160405180910390f35b34156100ed57600080fd5b6100ce6103b3565b341561010057600080fd5b6100ce6105a2565b341561011357600080fd5b61012261ffff60043516610764565b005b341561012f57600080fd5b6100ce610892565b341561014257600080fd5b6100ce610a5b565b341561015557600080fd5b6100ce610c32565b341561016857600080fd5b6100ce610e72565b341561017b57600080fd5b6100ce61101d565b341561018e57600080fd5b6100ce611313565b34156101a157600080fd5b6100ce6114be565b34156101b457600080fd5b6100ce61163f565b34156101c757600080fd5b6100ce6117ab565b34156101da57600080fd5b6100ce611ab5565b60008054600160a060020a0316634b1ec20c600a600160405160e060020a63ffffffff851602815261ffff909216600483015215156024820152604401600060405180830381600087803b151561023857600080fd5b6102c65a03f1151561024957600080fd5b505060008054600160a060020a031691506337c7494890600a906040516020015260405160e060020a63ffffffff841602815261ffff9091166004820152602401602060405180830381600087803b15156102a357600080fd5b6102c65a03f115156102b457600080fd5b5050506040518051151560011490506102c957fe5b60008054600160a060020a031690634b1ec20c90600a9060405160e060020a63ffffffff851602815261ffff909216600483015215156024820152604401600060405180830381600087803b151561032057600080fd5b6102c65a03f1151561033157600080fd5b505060008054600160a060020a031691506337c7494890600a906040516020015260405160e060020a63ffffffff841602815261ffff9091166004820152602401602060405180830381600087803b151561038b57600080fd5b6102c65a03f1151561039c57600080fd5b50505060405180511590506103ad57fe5b50600190565b60008054600160a060020a031663d5c98db1600a3360405160e060020a63ffffffff851602815261ffff9092166004830152600160a060020a03166024820152604401600060405180830381600087803b151561040f57600080fd5b6102c65a03f1151561042057600080fd5b505060008054600160a060020a0333811693501690632ccaa3e990600a906040516020015260405160e060020a63ffffffff841602815261ffff9091166004820152602401602060405180830381600087803b151561047e57600080fd5b6102c65a03f1151561048f57600080fd5b50505060405180519050600160a060020a03161415156104ab57fe5b600054600160a060020a031663d5c98db1600a3060405160e060020a63ffffffff851602815261ffff9092166004830152600160a060020a03166024820152604401600060405180830381600087803b151561050657600080fd5b6102c65a03f1151561051757600080fd5b505060008054600160a060020a0330811693501690632ccaa3e990600a906040516020015260405160e060020a63ffffffff841602815261ffff9091166004820152602401602060405180830381600087803b151561057557600080fd5b6102c65a03f1151561058657600080fd5b50505060405180519050600160a060020a03161415156103ad57fe5b60008054600160a060020a031663c19358bb600a3360405160e060020a63ffffffff851602815261ffff9092166004830152600160a060020a03166024820152604401600060405180830381600087803b15156105fe57600080fd5b6102c65a03f1151561060f57600080fd5b505060008054600160a060020a033381169350169063ba8c0c9d90600a906040516020015260405160e060020a63ffffffff841602815261ffff9091166004820152602401602060405180830381600087803b151561066d57600080fd5b6102c65a03f1151561067e57600080fd5b50505060405180519050600160a060020a031614151561069a57fe5b600054600160a060020a031663c19358bb600a3060405160e060020a63ffffffff851602815261ffff9092166004830152600160a060020a03166024820152604401600060405180830381600087803b15156106f557600080fd5b6102c65a03f1151561070657600080fd5b505060008054600160a060020a033081169350169063ba8c0c9d90600a906040516020015260405160e060020a63ffffffff841602815261ffff9091166004820152602401602060405180830381600087803b151561057557600080fd5b61076c6121a9565b60008054600160a060020a0316634b1ec20c84600160405160e060020a63ffffffff851602815261ffff909216600483015215156024820152604401600060405180830381600087803b15156107c157600080fd5b6102c65a03f115156107d257600080fd5b505050600090505b60058110156107ff576103098282600581106107f257fe5b60200201526001016107da565b600054600160a060020a031663eb39bc90848460405160e060020a63ffffffff851602815261ffff831660048201908152906024018260a080838360005b8381101561085557808201518382015260200161083d565b5050505090500192505050600060405180830381600087803b151561087957600080fd5b6102c65a03f1151561088a57600080fd5b505050505050565b60008054600160a060020a0316636d87b65c600a61271060405160e060020a63ffffffff851602815261ffff90921660048301526024820152604401600060405180830381600087803b15156108e757600080fd5b6102c65a03f115156108f857600080fd5b505060008054600160a060020a03169150631bbc795290600a906040516020015260405160e060020a63ffffffff841602815261ffff9091166004820152602401602060405180830381600087803b151561095257600080fd5b6102c65a03f1151561096357600080fd5b505050604051805161271014905061097757fe5b600054600160a060020a0316636d87b65c600a61022b60405160e060020a63ffffffff851602815261ffff90921660048301526024820152604401600060405180830381600087803b15156109cb57600080fd5b6102c65a03f115156109dc57600080fd5b505060008054600160a060020a03169150631bbc795290600a906040516020015260405160e060020a63ffffffff841602815261ffff9091166004820152602401602060405180830381600087803b1515610a3657600080fd5b6102c65a03f11515610a4757600080fd5b505050604051805161022b1490506103ad57fe5b6000805442906032820190600160a060020a031663411b65ef600a8460405160e060020a63ffffffff851602815261ffff90921660048301526024820152604401600060405180830381600087803b1515610ab557600080fd5b6102c65a03f11515610ac657600080fd5b505060008054849250600160a060020a0316906323b11bb190600a906040516020015260405160e060020a63ffffffff841602815261ffff9091166004820152602401602060405180830381600087803b1515610b2257600080fd5b6102c65a03f11515610b3357600080fd5b50505060405180519050141515610b4657fe5b600054600160a060020a031663411b65ef600a8360405160e060020a63ffffffff851602815261ffff90921660048301526024820152604401600060405180830381600087803b1515610b9857600080fd5b6102c65a03f11515610ba957600080fd5b505060008054839250600160a060020a0316906323b11bb190600a906040516020015260405160e060020a63ffffffff841602815261ffff9091166004820152602401602060405180830381600087803b1515610c0557600080fd5b6102c65a03f11515610c1657600080fd5b50505060405180519050141515610c2957fe5b60019250505090565b6000610c3c6121d0565b610c446121d0565b60008054600160a060020a031690638b9997fd9033906040516040015260405160e060020a63ffffffff8416028152600160a060020a0390911660048201526024016040805180830381600087803b1515610c9e57600080fd5b6102c65a03f11515610caf57600080fd5b50505060405160408082019052915061d903816000602002015261f7dd8160016020020152600054600160a060020a031663606bc9a5338360405160e060020a63ffffffff8516028152600160a060020a038316600482019081529060240182604080838360005b83811015610d2f578082015183820152602001610d17565b5050505090500192505050600060405180830381600087803b1515610d5357600080fd5b6102c65a03f11515610d6457600080fd5b50829150505160008054600160a060020a031690638b9997fd9033906040516040015260405160e060020a63ffffffff8416028152600160a060020a0390911660048201526024016040805180830381600087803b1515610dc457600080fd5b6102c65a03f11515610dd557600080fd5b505050604051604081810190525114610dea57fe5b602081015160008054600160a060020a031690638b9997fd9033906040516040015260405160e060020a63ffffffff8416028152600160a060020a0390911660048201526024016040805180830381600087803b1515610e4957600080fd5b6102c65a03f11515610e5a57600080fd5b505050604051604081810190526020015114610c2957fe5b60008054429061022b820190600160a060020a03166317e0aeb8600a8460405160e060020a63ffffffff851602815261ffff90921660048301526024820152604401600060405180830381600087803b1515610ecd57600080fd5b6102c65a03f11515610ede57600080fd5b505060008054849250600160a060020a0316906399b2904490600a906040516020015260405160e060020a63ffffffff841602815261ffff9091166004820152602401602060405180830381600087803b1515610f3a57600080fd5b6102c65a03f11515610f4b57600080fd5b50505060405180519050141515610f5e57fe5b600054600160a060020a03166317e0aeb8600a8360405160e060020a63ffffffff851602815261ffff90921660048301526024820152604401600060405180830381600087803b1515610fb057600080fd5b6102c65a03f11515610fc157600080fd5b505060008054839250600160a060020a0316906399b2904490600a906040516020015260405160e060020a63ffffffff841602815261ffff9091166004820152602401602060405180830381600087803b1515610c0557600080fd5b600080548190600160a060020a03166337c74948600a836040516020015260405160e060020a63ffffffff841602815261ffff9091166004820152602401602060405180830381600087803b151561107457600080fd5b6102c65a03f1151561108557600080fd5b5050506040518051600054909250600160a060020a0316905063886b148d600a83156103e8610bb861138860405160e060020a63ffffffff881602815261ffff9095166004860152921515602485015260448401919091526064830152608482015260a401600060405180830381600087803b151561110357600080fd5b6102c65a03f1151561111457600080fd5b50506000805483159250600160a060020a0316906337c7494890600a906040516020015260405160e060020a63ffffffff841602815261ffff9091166004820152602401602060405180830381600087803b151561117157600080fd5b6102c65a03f1151561118257600080fd5b50505060405180519050151514151561119757fe5b60008054600160a060020a0316906399b2904490600a906040516020015260405160e060020a63ffffffff841602815261ffff9091166004820152602401602060405180830381600087803b15156111ee57600080fd5b6102c65a03f115156111ff57600080fd5b50505060405180516103e814905061121357fe5b60008054600160a060020a0316906323b11bb190600a906040516020015260405160e060020a63ffffffff841602815261ffff9091166004820152602401602060405180830381600087803b151561126a57600080fd5b6102c65a03f1151561127b57600080fd5b5050506040518051610bb814905061128f57fe5b60008054600160a060020a03169063fc9ede6590600a906040516020015260405160e060020a63ffffffff841602815261ffff9091166004820152602401602060405180830381600087803b15156112e657600080fd5b6102c65a03f115156112f757600080fd5b505050604051805161138814905061130b57fe5b600191505090565b60008054429061270f820190600160a060020a031663b4cc2181600a8460405160e060020a63ffffffff851602815261ffff90921660048301526024820152604401600060405180830381600087803b151561136e57600080fd5b6102c65a03f1151561137f57600080fd5b505060008054849250600160a060020a03169063fc9ede6590600a906040516020015260405160e060020a63ffffffff841602815261ffff9091166004820152602401602060405180830381600087803b15156113db57600080fd5b6102c65a03f115156113ec57600080fd5b505050604051805190501415156113ff57fe5b600054600160a060020a031663b4cc2181600a8360405160e060020a63ffffffff851602815261ffff90921660048301526024820152604401600060405180830381600087803b151561145157600080fd5b6102c65a03f1151561146257600080fd5b505060008054839250600160a060020a03169063fc9ede6590600a906040516020015260405160e060020a63ffffffff841602815261ffff9091166004820152602401602060405180830381600087803b1515610c0557600080fd5b600080544290600160a060020a03166315f59033600a338460405160e060020a63ffffffff861602815261ffff9093166004840152600160a060020a0390911660248301526044820152606401600060405180830381600087803b151561152457600080fd5b6102c65a03f1151561153557600080fd5b505060008054600160a060020a033381169350169063ba8c0c9d90600a906040516020015260405160e060020a63ffffffff841602815261ffff9091166004820152602401602060405180830381600087803b151561159357600080fd5b6102c65a03f115156115a457600080fd5b50505060405180519050600160a060020a03161415156115c057fe5b600080548291600160a060020a03909116906323b11bb190600a906040516020015260405160e060020a63ffffffff841602815261ffff9091166004820152602401602060405180830381600087803b151561161b57600080fd5b6102c65a03f1151561162c57600080fd5b5050506040518051905014151561130b57fe5b60008054600160a060020a031663c575200d600a61c35061ea6060405160e060020a63ffffffff861602815261ffff909316600484015260248301919091526044820152606401600060405180830381600087803b151561169f57600080fd5b6102c65a03f115156116b057600080fd5b505060008054600160a060020a0316915063fc9ede6590600a906040516020015260405160e060020a63ffffffff841602815261ffff9091166004820152602401602060405180830381600087803b151561170a57600080fd5b6102c65a03f1151561171b57600080fd5b505050604051805161c35014905061172f57fe5b60008054600160a060020a0316906399b2904490600a906040516020015260405160e060020a63ffffffff841602815261ffff9091166004820152602401602060405180830381600087803b151561178657600080fd5b6102c65a03f1151561179757600080fd5b505050604051805161ea601490506103ad57fe5b600080548190600160a060020a03166337c74948600a836040516020015260405160e060020a63ffffffff841602815261ffff9091166004820152602401602060405180830381600087803b151561180257600080fd5b6102c65a03f1151561181357600080fd5b5050506040518051600054909250600160a060020a0316905063b9e58ab0600a336103e88515600360405160e060020a63ffffffff881602815261ffff9095166004860152600160a060020a03909316602485015260448401919091521515606483015260ff16608482015260a401600060405180830381600087803b151561189b57600080fd5b6102c65a03f115156118ac57600080fd5b505060008054600160a060020a0333811693501690632ccaa3e990600a906040516020015260405160e060020a63ffffffff841602815261ffff9091166004820152602401602060405180830381600087803b151561190a57600080fd5b6102c65a03f1151561191b57600080fd5b50505060405180519050600160a060020a031614151561193757fe5b60008054600160a060020a031690631bbc795290600a906040516020015260405160e060020a63ffffffff841602815261ffff9091166004820152602401602060405180830381600087803b151561198e57600080fd5b6102c65a03f1151561199f57600080fd5b50505060405180516103e81490506119b357fe5b60008054821591600160a060020a03909116906337c7494890600a906040516020015260405160e060020a63ffffffff841602815261ffff9091166004820152602401602060405180830381600087803b1515611a0f57600080fd5b6102c65a03f11515611a2057600080fd5b505050604051805190501515141515611a3557fe5b60008054600160a060020a0316906398864aaf90600a906040516020015260405160e060020a63ffffffff841602815261ffff9091166004820152602401602060405180830381600087803b1515611a8c57600080fd5b6102c65a03f11515611a9d57600080fd5b5050506040518051905060ff16600314151561130b57fe5b60008054819081908190819081908190600160a060020a03166318160ddd82604051602001526040518163ffffffff1660e060020a028152600401602060405180830381600087803b1515611b0957600080fd5b6102c65a03f11515611b1a57600080fd5b505050604051805160008054919850600160a060020a0390911691506370a082319033906040516020015260405160e060020a63ffffffff8416028152600160a060020a039091166004820152602401602060405180830381600087803b1515611b8357600080fd5b6102c65a03f11515611b9457600080fd5b505050604051805160008054919750600160a060020a0390911691506370a082319030906040516020015260405160e060020a63ffffffff8416028152600160a060020a039091166004820152602401602060405180830381600087803b1515611bfd57600080fd5b6102c65a03f11515611c0e57600080fd5b5050506040518051600054909550600160a060020a031690506326728b143361271060405160e060020a63ffffffff8516028152600160a060020a0390921660048301526024820152604401600060405180830381600087803b1515611c7357600080fd5b6102c65a03f11515611c8457600080fd5b5050600054600160a060020a031690506326728b143360c860405160e060020a63ffffffff8516028152600160a060020a0390921660048301526024820152604401600060405180830381600087803b1515611cdf57600080fd5b6102c65a03f11515611cf057600080fd5b5050600054600160a060020a031690506326728b143061138860405160e060020a63ffffffff8516028152600160a060020a0390921660048301526024820152604401600060405180830381600087803b1515611d4c57600080fd5b6102c65a03f11515611d5d57600080fd5b5050600054600160a060020a0316905063f6f8ca07336103e860405160e060020a63ffffffff8516028152600160a060020a0390921660048301526024820152604401600060405180830381600087803b1515611db957600080fd5b6102c65a03f11515611dca57600080fd5b5050600054600160a060020a031690506326728b1433603260405160e060020a63ffffffff8516028152600160a060020a0390921660048301526024820152604401600060405180830381600087803b1515611e2557600080fd5b6102c65a03f11515611e3657600080fd5b5050600054600160a060020a0316905063f6f8ca0730610bb860405160e060020a63ffffffff8516028152600160a060020a0390921660048301526024820152604401600060405180830381600087803b1515611e9257600080fd5b6102c65a03f11515611ea357600080fd5b5050600054600160a060020a031690506326728b1430606460405160e060020a63ffffffff8516028152600160a060020a0390921660048301526024820152604401600060405180830381600087803b1515611efe57600080fd5b6102c65a03f11515611f0f57600080fd5b5050600054600160a060020a0316905063f6f8ca0730603260405160e060020a63ffffffff8516028152600160a060020a0390921660048301526024820152604401600060405180830381600087803b1515611f6a57600080fd5b6102c65a03f11515611f7b57600080fd5b5050600054600160a060020a0316905063121c2b3530600a816064338160405160e060020a63ffffffff8916028152600160a060020a039687166004820152602481019590955292851660448501526064840191909152909216608482015260a481019190915260c401600060405180830381600087803b1515611ffe57600080fd5b6102c65a03f1151561200f57600080fd5b505060008054612486955061085c9450612ce289019350839250600160a060020a0316906318160ddd90604051602001526040518163ffffffff1660e060020a028152600401602060405180830381600087803b151561206e57600080fd5b6102c65a03f1151561207f57600080fd5b5050506040518051905014151561209257fe5b6000805486850191600160a060020a03909116906370a082319033906040516020015260405160e060020a63ffffffff8416028152600160a060020a039091166004820152602401602060405180830381600087803b15156120f357600080fd5b6102c65a03f1151561210457600080fd5b5050506040518051905014151561211757fe5b6000805485840191600160a060020a03909116906370a082319030906040516020015260405160e060020a63ffffffff8416028152600160a060020a039091166004820152602401602060405180830381600087803b151561217857600080fd5b6102c65a03f1151561218957600080fd5b5050506040518051905014151561219c57fe5b6001965050505050505090565b60a06040519081016040526005815b60008152602001906001900390816121b85790505090565b60408051908101604052600081526001602082016121b85600a165627a7a72305820deac4bfddba56bd1373f786504963f28de54b2aa2380951cff8f956fba3d43720029",
  "source": "pragma solidity ^0.4.2;\nimport \"./PXLProperty.sol\";\n\ncontract PXLPropertyUnitTests {\n    PXLProperty_PixelPropertyAccess_UnitTests fullAccessUnitTests;\n    PXLProperty_PropertyDAppAccess_UnitTests dappAccessUnitTests;\n    PXLProperty pxlProperty;\n    \n    \n    PXLProperty_Regulator mod1;\n    PXLProperty_Regulator mod2;\n    PXLProperty_Regulator admin1;\n    PXLProperty_Regulator admin2;\n    \n    function PXLPropertyUnitTests() public {\n        \n    }\n    \n    function LoadUnitTests(address pxlPropertyAddress) public {\n        pxlProperty = PXLProperty(pxlPropertyAddress);\n        fullAccessUnitTests = new PXLProperty_PixelPropertyAccess_UnitTests(address(pxlProperty));\n        pxlProperty.setPixelPropertyContract(address(fullAccessUnitTests));\n        dappAccessUnitTests = new PXLProperty_PropertyDAppAccess_UnitTests(address(pxlProperty));\n        pxlProperty.setPropertyDAppContract(address(dappAccessUnitTests), true);\n        mod1 = new PXLProperty_Regulator(address(pxlProperty));\n        mod2 = new PXLProperty_Regulator(address(pxlProperty));\n        admin1 = new PXLProperty_Regulator(address(pxlProperty));\n        admin2 = new PXLProperty_Regulator(address(pxlProperty));\n    }\n    \n    function RunPixelPropertyAccessUnitTests() public returns(bool) {\n        \n        assert(fullAccessUnitTests.setPropertyPrivateMode_Test());\n        assert(fullAccessUnitTests.setPropertyOwner_Test());\n        assert(fullAccessUnitTests.setPropertyLastUpdater_Test());\n        assert(fullAccessUnitTests.setPropertySalePrice_Test());\n        assert(fullAccessUnitTests.setPropertyLastUpdate_Test());\n        assert(fullAccessUnitTests.setPropertyBecomePublic_Test());\n        assert(fullAccessUnitTests.setPropertyEarnUntil_Test());\n        assert(fullAccessUnitTests.setPropertyPrivateModeEarnUntilLastUpdateBecomePublic_Test());\n        assert(fullAccessUnitTests.setPropertyLastUpdaterLastUpdate_Test());\n        assert(fullAccessUnitTests.setPropertyBecomePublicEarnUntil_Test());\n        assert(fullAccessUnitTests.setPropertyOwnerSalePricePrivateModeFlag_Test());\n        assert(fullAccessUnitTests.rewardPXLburnPXL_Test());\n        assert(fullAccessUnitTests.setOwnerHoverText_Test());\n        \n        return true;\n    }\n    \n    function RunPropertyDAppAccessUnitTests() public returns(bool) {\n        \n        assert(dappAccessUnitTests.setPropertyColors_Test());\n        assert(dappAccessUnitTests.setPropertyRowColor_Test());\n        assert(dappAccessUnitTests.setOwnerHoverText_Test());\n        assert(dappAccessUnitTests.setOwnerLink_Test());\n        \n        return true;\n    }\n    \n    function RunModerationUnitTests() public returns(bool) {\n        //Root3 (owner) can give admin2\n        pxlProperty.setRegulatorAccessLevel(address(admin2), 4);\n        \n        //Admin2 can give Admin1\n        admin2.setRegulatorAccessLevel(address(admin1), 3);\n        \n        //Admin1 can mod mods1&2\n        admin1.setRegulatorAccessLevel(address(mod1), 1);\n        admin1.setRegulatorAccessLevel(address(mod2), 2);\n        \n        //Mod1 can NSFW\n        assert(mod1.setPropertyFlag(15, 1));\n        \n        //Mod2 can BAN\n        fullAccessUnitTests.setPropertyPrivateModeToBan(15);\n        assert(mod2.setPropertyFlag(15, 2));\n        \n        //Mod2 can unban\n        assert(mod2.setPropertyFlag(15, 0));\n        return true;\n    }\n    \n    function RunContractUpdateUnitTests() public returns(bool) {\n        PXLProperty_PixelPropertyAccess_Replacement replacement = new PXLProperty_PixelPropertyAccess_Replacement(address(pxlProperty));\n        pxlProperty.setPixelPropertyContract(address(replacement)); //Can replace PixelProperty DApp\n        assert(replacement.modifyPXLPropertyState()); //New PixelProperty can modify state\n        fullAccessUnitTests = new PXLProperty_PixelPropertyAccess_UnitTests(address(pxlProperty)); \n        pxlProperty.setPixelPropertyContract(address(fullAccessUnitTests)); // Update PXLProperty again but a \"new\" version of old one\n        RunPixelPropertyAccessUnitTests();\n        return true;\n    }\n}\n\n//Access as PixelProperty, which modifies ERC20 + Property Market + PropertyDApp\ncontract PXLProperty_PixelPropertyAccess_UnitTests {\n    uint16 constant PROPERTY_1 = 10;\n    PXLProperty pxlProperty;\n    \n    function PXLProperty_PixelPropertyAccess_UnitTests(address pxlPropertyAddress) public {\n        pxlProperty = PXLProperty(pxlPropertyAddress);\n    }\n    \n    function setPropertyPrivateMode_Test() public returns(bool) {\n        pxlProperty.setPropertyPrivateMode(PROPERTY_1, true);\n        assert(pxlProperty.getPropertyPrivateMode(PROPERTY_1) == true); // We can set to private mode\n        pxlProperty.setPropertyPrivateMode(PROPERTY_1, false);\n        assert(pxlProperty.getPropertyPrivateMode(PROPERTY_1) == false); // We can update it to false\n        return true;\n    }\n    \n    function setPropertyOwner_Test() public returns(bool) {\n        pxlProperty.setPropertyOwner(PROPERTY_1, msg.sender);\n        assert(pxlProperty.getPropertyOwner(PROPERTY_1) == msg.sender); // We can set the owner\n        pxlProperty.setPropertyOwner(PROPERTY_1, address(this));\n        assert(pxlProperty.getPropertyOwner(PROPERTY_1) == address(this)); // We can update the owner\n        return true;\n    }\n    \n    function setPropertyLastUpdater_Test() public returns(bool) {\n        pxlProperty.setPropertyLastUpdater(PROPERTY_1, msg.sender); \n        assert(pxlProperty.getPropertyLastUpdater(PROPERTY_1) == msg.sender); // We can set the lastUpdater\n        pxlProperty.setPropertyLastUpdater(PROPERTY_1, address(this));\n        assert(pxlProperty.getPropertyLastUpdater(PROPERTY_1) == address(this)); // We can update the lastUpdater\n        return true;\n    }\n    \n    function setPropertySalePrice_Test() public returns(bool) {\n        pxlProperty.setPropertySalePrice(PROPERTY_1, 10000);\n        assert(pxlProperty.getPropertySalePrice(PROPERTY_1) == 10000); // We can set the sale price\n        pxlProperty.setPropertySalePrice(PROPERTY_1, 555);\n        assert(pxlProperty.getPropertySalePrice(PROPERTY_1) == 555); // We can update the sale price\n        return true;\n    }\n    \n    function setPropertyLastUpdate_Test() public returns(bool) {\n        uint256 timestamp1 = now;\n        uint256 timestamp2 = timestamp1 + 50;\n        pxlProperty.setPropertyLastUpdate(PROPERTY_1, timestamp1);\n        assert(pxlProperty.getPropertyLastUpdate(PROPERTY_1) == timestamp1); // We can set the lastUpdate\n        pxlProperty.setPropertyLastUpdate(PROPERTY_1, timestamp2);\n        assert(pxlProperty.getPropertyLastUpdate(PROPERTY_1) == timestamp2); // We can update the lastUpdate\n        return true;\n    }\n    \n    function setPropertyBecomePublic_Test() public returns(bool) {\n        uint256 timestamp1 = now;\n        uint256 timestamp2 = timestamp1 + 9999;\n        pxlProperty.setPropertyBecomePublic(PROPERTY_1, timestamp1);\n        assert(pxlProperty.getPropertyBecomePublic(PROPERTY_1) == timestamp1); // We can set the becomePublic\n        pxlProperty.setPropertyBecomePublic(PROPERTY_1, timestamp2);\n        assert(pxlProperty.getPropertyBecomePublic(PROPERTY_1) == timestamp2); // We can update the becomePublic\n        return true;\n    }\n    \n    function setPropertyEarnUntil_Test() public returns(bool) {\n        uint256 timestamp1 = now;\n        uint256 timestamp2 = timestamp1 + 555;\n        pxlProperty.setPropertyEarnUntil(PROPERTY_1, timestamp1);\n        assert(pxlProperty.getPropertyEarnUntil(PROPERTY_1) == timestamp1); // We can set the earnUntil\n        pxlProperty.setPropertyEarnUntil(PROPERTY_1, timestamp2);\n        assert(pxlProperty.getPropertyEarnUntil(PROPERTY_1) == timestamp2); // We can update the earnUntil\n        return true;\n    }\n    \n    function setPropertyPrivateModeEarnUntilLastUpdateBecomePublic_Test() public returns(bool) {\n        bool currentPrivateMode = pxlProperty.getPropertyPrivateMode(PROPERTY_1);\n        \n        pxlProperty.setPropertyPrivateModeEarnUntilLastUpdateBecomePublic(PROPERTY_1, (!currentPrivateMode), 1000, 3000, 5000);\n        \n        assert(pxlProperty.getPropertyPrivateMode(PROPERTY_1) == (!currentPrivateMode));\n        assert(pxlProperty.getPropertyEarnUntil(PROPERTY_1) == 1000);\n        assert(pxlProperty.getPropertyLastUpdate(PROPERTY_1) == 3000);\n        assert(pxlProperty.getPropertyBecomePublic(PROPERTY_1) == 5000);\n        return true;\n    }\n    \n    function setPropertyLastUpdaterLastUpdate_Test() public returns(bool) {\n        uint256 timestamp = now;\n        \n        pxlProperty.setPropertyLastUpdaterLastUpdate(PROPERTY_1, msg.sender, timestamp);\n        \n        assert(pxlProperty.getPropertyLastUpdater(PROPERTY_1) == msg.sender);\n        assert(pxlProperty.getPropertyLastUpdate(PROPERTY_1) == timestamp);\n        return true;\n    }\n    \n    function setPropertyBecomePublicEarnUntil_Test() public returns(bool) {\n        pxlProperty.setPropertyBecomePublicEarnUntil(PROPERTY_1, 50000, 60000);\n        \n        assert(pxlProperty.getPropertyBecomePublic(PROPERTY_1) == 50000);\n        assert(pxlProperty.getPropertyEarnUntil(PROPERTY_1) == 60000);\n        return true;\n    }\n    \n    function setPropertyOwnerSalePricePrivateModeFlag_Test() public returns(bool) {\n        bool currentPrivateMode = pxlProperty.getPropertyPrivateMode(PROPERTY_1);\n        \n        pxlProperty.setPropertyOwnerSalePricePrivateModeFlag(PROPERTY_1, msg.sender, 1000, (!currentPrivateMode), 3);\n        \n        assert(pxlProperty.getPropertyOwner(PROPERTY_1) == msg.sender);\n        assert(pxlProperty.getPropertySalePrice(PROPERTY_1) == 1000);\n        assert(pxlProperty.getPropertyPrivateMode(PROPERTY_1) == (!currentPrivateMode));\n        assert(pxlProperty.getPropertyFlag(PROPERTY_1) == 3);\n        return true;\n    }\n    \n    function rewardPXLburnPXL_Test() public returns(bool) {\n        uint256 totalSupply = pxlProperty.totalSupply();\n        uint256 senderOriginalPXL = pxlProperty.balanceOf(msg.sender);\n        uint256 thisOriginalPXL = pxlProperty.balanceOf(address(this));\n        \n        pxlProperty.rewardPXL(msg.sender, 10000);\n        pxlProperty.rewardPXL(msg.sender, 200);\n        pxlProperty.rewardPXL(address(this), 5000);\n        pxlProperty.burnPXL(msg.sender, 1000);\n        pxlProperty.rewardPXL(msg.sender, 50);\n        pxlProperty.burnPXL(address(this), 3000);\n        pxlProperty.rewardPXL(address(this), 100);\n        pxlProperty.burnPXL(address(this), 50);\n        pxlProperty.burnPXLRewardPXLx2(address(this), 10, address(this), 100, msg.sender, 100);\n        \n        uint256 senderPXL = 10000 + 200 - 1000 + 50 + 100;\n        uint256 thisPXL = 5000 - 3000 + 100 - 50 - 10 + 100;\n        uint256 properSupply = totalSupply + senderPXL + thisPXL;\n        \n        assert(pxlProperty.totalSupply() == properSupply);\n        assert(pxlProperty.balanceOf(msg.sender) == senderOriginalPXL + senderPXL);\n        assert(pxlProperty.balanceOf(address(this)) == thisOriginalPXL + thisPXL);\n        return true;\n    }\n    \n    //Proves that we have DApp access as well\n    function setOwnerHoverText_Test() public returns(bool) {\n        uint256[2] memory oldHoverText = pxlProperty.getOwnerHoverText(msg.sender);\n        uint256[2] memory newHoverText;\n        newHoverText[0] = 55555;\n        newHoverText[1] = 63453;\n        pxlProperty.setOwnerHoverText(msg.sender, newHoverText);\n        assert(pxlProperty.getOwnerHoverText(msg.sender)[0] == newHoverText[0]);\n        assert(pxlProperty.getOwnerHoverText(msg.sender)[1] == newHoverText[1]);\n        return true;\n    }\n\n    \n    //Needed for moderation test\n    function setPropertyPrivateModeToBan(uint16 propertyID) public {\n        pxlProperty.setPropertyPrivateMode(propertyID, true);\n        uint256[5] memory newColors;\n        for(uint256 i = 0; i < 5; i++) {\n            newColors[i] = 777;\n        }\n        pxlProperty.setPropertyColors(propertyID, newColors);\n    }\n}\n\n//Access as Property DApp\ncontract PXLProperty_PropertyDAppAccess_UnitTests {\n    PXLProperty pxlProperty;\n    uint16 constant PROPERTY_1 = 50;\n    \n    function PXLProperty_PropertyDAppAccess_UnitTests(address pxlPropertyAddress) public {\n        pxlProperty = PXLProperty(pxlPropertyAddress);\n    }\n    \n    function setPropertyColors_Test() public returns(bool) {\n        uint256[5] memory defaultColors = pxlProperty.getPropertyColors(PROPERTY_1);\n        assert(defaultColors[0] == 0 && defaultColors[2] == 0 && defaultColors[4] == 0); // There is no colors\n        uint256[5] memory newColors;\n        newColors[2] = 10;\n        newColors[4] = 99;\n        pxlProperty.setPropertyColors(PROPERTY_1, newColors);\n        assert(pxlProperty.getPropertyColors(PROPERTY_1)[2] == 10); // We can set the colors\n        assert(pxlProperty.getPropertyColors(PROPERTY_1)[4] == 99);\n        newColors[2] = 66;\n        pxlProperty.setPropertyColors(PROPERTY_1, newColors);\n        assert(pxlProperty.getPropertyColors(PROPERTY_1)[2] == 66); // We can update the colors\n        return true;\n    }\n    \n    function setPropertyRowColor_Test() public returns(bool) {\n        pxlProperty.setPropertyRowColor(PROPERTY_1, 3, 33);\n        assert(pxlProperty.getPropertyColorsOfRow(PROPERTY_1, 3) == 33); // We can set the row\n        return true;\n    }\n    \n    function setOwnerHoverText_Test() public returns(bool) {\n        uint256[2] memory newHoverText;\n        newHoverText[0] = 55555;\n        newHoverText[1] = 63453;\n        pxlProperty.setOwnerHoverText(msg.sender, newHoverText);\n        assert(pxlProperty.getOwnerHoverText(msg.sender)[0] == newHoverText[0]);\n        assert(pxlProperty.getOwnerHoverText(msg.sender)[1] == newHoverText[1]);\n        return true;\n    }\n    \n    function setOwnerLink_Test() public returns(bool) {\n        uint256[2] memory newLink;\n        newLink[0] = 55555;\n        newLink[1] = 63453;\n        pxlProperty.setOwnerLink(msg.sender, newLink);\n        assert(pxlProperty.getOwnerLink(msg.sender)[0] == newLink[0]);\n        assert(pxlProperty.getOwnerLink(msg.sender)[1] == newLink[1]);\n        return true;\n    }\n}\n\ncontract PXLProperty_PixelPropertyAccess_Replacement {\n    uint16 constant PROPERTY_1 = 10;\n    PXLProperty pxlProperty;\n    \n    function PXLProperty_PixelPropertyAccess_Replacement(address pxlPropertyAddress) public {\n        pxlProperty = PXLProperty(pxlPropertyAddress);\n    }\n    \n    function modifyPXLPropertyState() public returns(bool) {\n        pxlProperty.rewardPXL(address(this), 1000);\n        pxlProperty.burnPXL(address(this), 500);\n        for(uint256 i = 0; i < 25; i++) {\n            pxlProperty.setPropertyPrivateMode(PROPERTY_1, true);\n            pxlProperty.setPropertyLastUpdate(PROPERTY_1, now);\n            pxlProperty.setPropertyEarnUntil(PROPERTY_1, now + i);\n            pxlProperty.setPropertyLastUpdater(PROPERTY_1, msg.sender);\n        }\n        pxlProperty.rewardPXL(msg.sender, 1000);\n        pxlProperty.burnPXL(msg.sender, 500);\n        return true;\n    }\n}\n\ncontract PXLProperty_Regulator {\n    PXLProperty pxlProperty;\n    \n    function PXLProperty_Regulator(address pxlPropertyAddress) public {\n        pxlProperty = PXLProperty(pxlPropertyAddress);\n    }\n    \n    function setPropertyFlag(uint16 propertyID, uint8 flag) public returns(bool) {\n        pxlProperty.setPropertyFlag(propertyID, flag);\n        assert(pxlProperty.getPropertyFlag(propertyID) == flag);\n        if (flag == 2) {\n            assert(pxlProperty.getPropertyColors(propertyID)[0] == 0);\n        }\n        return true;\n    }\n    \n    function setRegulatorAccessLevel(address user, uint8 level) public returns(bool) {\n        pxlProperty.setRegulatorAccessLevel(user, level);\n        return true;\n    }\n}",
  "sourcePath": "/Users/jaegarsarauer/Documents/DATA/CajartyComputing/Projects/PixelRealEstate/contracts/PXLPropertyUnitTests.sol",
  "compiler": {
    "name": "solc",
    "version": "0.4.18+commit.9cf6e910.Emscripten.clang"
  },
  "schemaVersion": "1.0.1",
  "updatedAt": "2018-04-26T22:44:58.734Z"
}