{
  "contractName": "Verifier",
  "abi": [
    {
      "constant": true,
      "inputs": [
        {
          "name": "msgHash",
          "type": "bytes32"
        },
        {
          "name": "v",
          "type": "uint8"
        },
        {
          "name": "r",
          "type": "bytes32"
        },
        {
          "name": "s",
          "type": "bytes32"
        }
      ],
      "name": "isSigned",
      "outputs": [
        {
          "name": "",
          "type": "bool"
        }
      ],
      "payable": false,
      "stateMutability": "view",
      "type": "function"
    },
    {
      "constant": true,
      "inputs": [
        {
          "name": "msgHash",
          "type": "bytes32"
        },
        {
          "name": "v",
          "type": "uint8"
        },
        {
          "name": "r",
          "type": "bytes32"
        },
        {
          "name": "s",
          "type": "bytes32"
        }
      ],
      "name": "recoverAddr",
      "outputs": [
        {
          "name": "",
          "type": "address"
        }
      ],
      "payable": false,
      "stateMutability": "pure",
      "type": "function"
    }
  ],
  "bytecode": "0x6060604052341561000f57600080fd5b61021d8061001e6000396000f30060606040526004361061004b5763ffffffff7c010000000000000000000000000000000000000000000000000000000060003504166343020f508114610050578063e5df669f14610086575b600080fd5b341561005b57600080fd5b61007260043560ff602435166044356064356100d1565b604051901515815260200160405180910390f35b341561009157600080fd5b6100a860043560ff60243516604435606435610178565b60405173ffffffffffffffffffffffffffffffffffffffff909116815260200160405180910390f35b60003373ffffffffffffffffffffffffffffffffffffffff166001868686866040516000815260200160405260006040516020015260405193845260ff90921660208085019190915260408085019290925260608401929092526080909201915160208103908084039060008661646e5a03f1151561014f57600080fd5b50506020604051035173ffffffffffffffffffffffffffffffffffffffff161495945050505050565b60006001858585856040516000815260200160405260006040516020015260405193845260ff90921660208085019190915260408085019290925260608401929092526080909201915160208103908084039060008661646e5a03f115156101df57600080fd5b505060206040510351959450505050505600a165627a7a723058207c8cd452f0b4e6aedbff74d80bc468062f3f3b4c3198b948a82501a33682f25a0029",
  "source": "pragma solidity ^0.4.8;\ncontract Verifier {\n    function recoverAddr(bytes32 msgHash, uint8 v, bytes32 r, bytes32 s) public pure returns (address) {\n        return ecrecover(msgHash, v, r, s);\n    }\n    \n    function isSigned(bytes32 msgHash, uint8 v, bytes32 r, bytes32 s) public view returns (bool) {\n        return ecrecover(msgHash, v, r, s) == msg.sender;\n    }\n}",
  "sourcePath": "/Users/jaegarsarauer/Documents/DATA/CajartyComputing/Projects/PixelRealEstate/contracts/Verifier.sol",
  "compiler": {
    "name": "solc",
    "version": "0.4.18+commit.9cf6e910.Emscripten.clang"
  },
  "schemaVersion": "1.0.1",
  "updatedAt": "2018-04-13T10:29:32.478Z"
}