{
  "_format": "hh-sol-artifact-1",
  "contractName": "PXLPropertyUnitTests",
  "sourceName": "contracts/PXLPropertyUnitTests.sol",
  "abi": [
    {
      "constant": false,
      "inputs": [],
      "name": "RunPixelPropertyAccessUnitTests",
      "outputs": [
        {
          "name": "",
          "type": "bool"
        }
      ],
      "payable": false,
      "stateMutability": "nonpayable",
      "type": "function"
    },
    {
      "constant": false,
      "inputs": [],
      "name": "RunContractUpdateUnitTests",
      "outputs": [
        {
          "name": "",
          "type": "bool"
        }
      ],
      "payable": false,
      "stateMutability": "nonpayable",
      "type": "function"
    },
    {
      "constant": false,
      "inputs": [],
      "name": "RunPropertyDAppAccessUnitTests",
      "outputs": [
        {
          "name": "",
          "type": "bool"
        }
      ],
      "payable": false,
      "stateMutability": "nonpayable",
      "type": "function"
    },
    {
      "constant": false,
      "inputs": [
        {
          "name": "pxlPropertyAddress",
          "type": "address"
        }
      ],
      "name": "LoadUnitTests",
      "outputs": [],
      "payable": false,
      "stateMutability": "nonpayable",
      "type": "function"
    },
    {
      "constant": false,
      "inputs": [],
      "name": "RunModerationUnitTests",
      "outputs": [
        {
          "name": "",
          "type": "bool"
        }
      ],
      "payable": false,
      "stateMutability": "nonpayable",
      "type": "function"
    },
    {
      "inputs": [],
      "payable": false,
      "stateMutability": "nonpayable",
      "type": "constructor"
    }
  ],
  "bytecode": "0x6060604052341561000f57600080fd5b6142728061001e6000396000f3006060604052600436106100535763ffffffff60e060020a60003504166328cf9fda81146100585780635aad3d171461007f57806362d96ec1146100925780638a006a9a146100a5578063d621bc1f146100c6575b600080fd5b341561006357600080fd5b61006b6100d9565b604051901515815260200160405180910390f35b341561008a57600080fd5b61006b61065a565b341561009d57600080fd5b61006b610831565b34156100b057600080fd5b6100c4600160a060020a036004351661087b565b005b34156100d157600080fd5b61006b610b50565b60008054600160a060020a03166345a4658b82604051602001526040518163ffffffff1660e060020a028152600401602060405180830381600087803b151561012157600080fd5b6102c65a03f1151561013257600080fd5b50505060405180519050151561014457fe5b60008054600160a060020a0316906350ccc67e90604051602001526040518163ffffffff1660e060020a028152600401602060405180830381600087803b151561018d57600080fd5b6102c65a03f1151561019e57600080fd5b5050506040518051905015156101b057fe5b60008054600160a060020a031690635e79b8ea90604051602001526040518163ffffffff1660e060020a028152600401602060405180830381600087803b15156101f957600080fd5b6102c65a03f1151561020a57600080fd5b50505060405180519050151561021c57fe5b60008054600160a060020a0316906384f2a35990604051602001526040518163ffffffff1660e060020a028152600401602060405180830381600087803b151561026557600080fd5b6102c65a03f1151561027657600080fd5b50505060405180519050151561028857fe5b60008054600160a060020a031690638938124a90604051602001526040518163ffffffff1660e060020a028152600401602060405180830381600087803b15156102d157600080fd5b6102c65a03f115156102e257600080fd5b5050506040518051905015156102f457fe5b60008054600160a060020a03169063df58a2f190604051602001526040518163ffffffff1660e060020a028152600401602060405180830381600087803b151561033d57600080fd5b6102c65a03f1151561034e57600080fd5b50505060405180519050151561036057fe5b60008054600160a060020a03169063acc2cac690604051602001526040518163ffffffff1660e060020a028152600401602060405180830381600087803b15156103a957600080fd5b6102c65a03f115156103ba57600080fd5b5050506040518051905015156103cc57fe5b60008054600160a060020a03169063b50db38390604051602001526040518163ffffffff1660e060020a028152600401602060405180830381600087803b151561041557600080fd5b6102c65a03f1151561042657600080fd5b50505060405180519050151561043857fe5b60008054600160a060020a03169063ed83eb0c90604051602001526040518163ffffffff1660e060020a028152600401602060405180830381600087803b151561048157600080fd5b6102c65a03f1151561049257600080fd5b5050506040518051905015156104a457fe5b60008054600160a060020a03169063efaa916d90604051602001526040518163ffffffff1660e060020a028152600401602060405180830381600087803b15156104ed57600080fd5b6102c65a03f115156104fe57600080fd5b50505060405180519050151561051057fe5b60008054600160a060020a03169063f012c7a890604051602001526040518163ffffffff1660e060020a028152600401602060405180830381600087803b151561055957600080fd5b6102c65a03f1151561056a57600080fd5b50505060405180519050151561057c57fe5b60008054600160a060020a03169063f3284ad190604051602001526040518163ffffffff1660e060020a028152600401602060405180830381600087803b15156105c557600080fd5b6102c65a03f115156105d657600080fd5b5050506040518051905015156105e857fe5b60008054600160a060020a03169063a71aac6d90604051602001526040518163ffffffff1660e060020a028152600401602060405180830381600087803b151561063157600080fd5b6102c65a03f1151561064257600080fd5b50505060405180519050151561065457fe5b50600190565b6002546000908190600160a060020a0316610673610f1a565b600160a060020a039091168152602001604051809103906000f080151561069957600080fd5b600254909150600160a060020a031663c839008e8260405160e060020a63ffffffff8416028152600160a060020a039091166004820152602401600060405180830381600087803b15156106ec57600080fd5b6102c65a03f115156106fd57600080fd5b50505080600160a060020a03166324ce48c76000604051602001526040518163ffffffff1660e060020a028152600401602060405180830381600087803b151561074657600080fd5b6102c65a03f1151561075757600080fd5b50505060405180519050151561076957fe5b600254600160a060020a031661077d610f2a565b600160a060020a039091168152602001604051809103906000f08015156107a357600080fd5b60008054600160a060020a031916600160a060020a03928316179081905560025482169163c839008e911660405160e060020a63ffffffff8416028152600160a060020a039091166004820152602401600060405180830381600087803b151561080c57600080fd5b6102c65a03f1151561081d57600080fd5b5050506108286100d9565b50600191505090565b600154600090600160a060020a031663a40a7d0482604051602001526040518163ffffffff1660e060020a028152600401602060405180830381600087803b151561063157600080fd5b60028054600160a060020a031916600160a060020a038381169190911791829055166108a5610f2a565b600160a060020a039091168152602001604051809103906000f08015156108cb57600080fd5b60008054600160a060020a031916600160a060020a03928316179081905560025482169163c839008e911660405160e060020a63ffffffff8416028152600160a060020a039091166004820152602401600060405180830381600087803b151561093457600080fd5b6102c65a03f1151561094557600080fd5b5050600254600160a060020a0316905061095d610f3a565b600160a060020a039091168152602001604051809103906000f080151561098357600080fd5b60018054600160a060020a031916600160a060020a039283161780825560025483169263165140529291169060405160e060020a63ffffffff8516028152600160a060020a03909216600483015215156024820152604401600060405180830381600087803b15156109f457600080fd5b6102c65a03f11515610a0557600080fd5b5050600254600160a060020a03169050610a1d610f4a565b600160a060020a039091168152602001604051809103906000f0801515610a4357600080fd5b60038054600160a060020a031916600160a060020a0392831617905560025416610a6b610f4a565b600160a060020a039091168152602001604051809103906000f0801515610a9157600080fd5b60048054600160a060020a031916600160a060020a0392831617905560025416610ab9610f4a565b600160a060020a039091168152602001604051809103906000f0801515610adf57600080fd5b60058054600160a060020a031916600160a060020a0392831617905560025416610b07610f4a565b600160a060020a039091168152602001604051809103906000f0801515610b2d57600080fd5b60068054600160a060020a031916600160a060020a039290921691909117905550565b600254600654600091600160a060020a03908116916395f47e4e9116600460405160e060020a63ffffffff8516028152600160a060020a03909216600483015260ff166024820152604401600060405180830381600087803b1515610bb457600080fd5b6102c65a03f11515610bc557600080fd5b5050600654600554600160a060020a0391821692506395f47e4e9116600360006040516020015260405160e060020a63ffffffff8516028152600160a060020a03909216600483015260ff166024820152604401602060405180830381600087803b1515610c3257600080fd5b6102c65a03f11515610c4357600080fd5b50505060405180515050600554600354600160a060020a03918216916395f47e4e9116600160006040516020015260405160e060020a63ffffffff8516028152600160a060020a03909216600483015260ff166024820152604401602060405180830381600087803b1515610cb757600080fd5b6102c65a03f11515610cc857600080fd5b50505060405180515050600554600454600160a060020a03918216916395f47e4e9116600260006040516020015260405160e060020a63ffffffff8516028152600160a060020a03909216600483015260ff166024820152604401602060405180830381600087803b1515610d3c57600080fd5b6102c65a03f11515610d4d57600080fd5b50505060405180515050600354600160a060020a0316638d106690600f600160006040516020015260405160e060020a63ffffffff851602815261ffff909216600483015260ff166024820152604401602060405180830381600087803b1515610db657600080fd5b6102c65a03f11515610dc757600080fd5b505050604051805190501515610dd957fe5b600054600160a060020a03166370deb255600f60405160e060020a63ffffffff841602815261ffff9091166004820152602401600060405180830381600087803b1515610e2557600080fd5b6102c65a03f11515610e3657600080fd5b5050600454600160a060020a03169050638d106690600f600260006040516020015260405160e060020a63ffffffff851602815261ffff909216600483015260ff166024820152604401602060405180830381600087803b1515610e9957600080fd5b6102c65a03f11515610eaa57600080fd5b505050604051805190501515610ebc57fe5b600454600160a060020a0316638d106690600f6000806040516020015260405160e060020a63ffffffff851602815261ffff909216600483015260ff166024820152604401602060405180830381600087803b151561063157600080fd5b60405161044f80610f5b83390190565b604051612269806113aa83390190565b6040516109318061361383390190565b60405161030380613f448339019056006060604052341561000f57600080fd5b60405160208061044f8339810160405280805160008054600160a060020a03909216600160a060020a031990921691909117905550506103fb806100546000396000f3006060604052600436106100275763ffffffff60e060020a60003504166324ce48c7811461002c575b600080fd5b341561003757600080fd5b61003f610053565b604051901515815260200160405180910390f35b600080548190600160a060020a03166326728b14306103e860405160e060020a63ffffffff8516028152600160a060020a0390921660048301526024820152604401600060405180830381600087803b15156100ae57600080fd5b6102c65a03f115156100bf57600080fd5b5050600054600160a060020a0316905063f6f8ca07306101f460405160e060020a63ffffffff8516028152600160a060020a0390921660048301526024820152604401600060405180830381600087803b151561011b57600080fd5b6102c65a03f1151561012c57600080fd5b505050600090505b60198110156102ee57600054600160a060020a0316634b1ec20c600a600160405160e060020a63ffffffff851602815261ffff909216600483015215156024820152604401600060405180830381600087803b151561019257600080fd5b6102c65a03f115156101a357600080fd5b5050600054600160a060020a0316905063411b65ef600a4260405160e060020a63ffffffff851602815261ffff90921660048301526024820152604401600060405180830381600087803b15156101f957600080fd5b6102c65a03f1151561020a57600080fd5b5050600054600160a060020a031690506317e0aeb8600a42840160405160e060020a63ffffffff851602815261ffff90921660048301526024820152604401600060405180830381600087803b151561026257600080fd5b6102c65a03f1151561027357600080fd5b5050600054600160a060020a0316905063c19358bb600a3360405160e060020a63ffffffff851602815261ffff9092166004830152600160a060020a03166024820152604401600060405180830381600087803b15156102d257600080fd5b6102c65a03f115156102e357600080fd5b505050600101610134565b600054600160a060020a03166326728b14336103e860405160e060020a63ffffffff8516028152600160a060020a0390921660048301526024820152604401600060405180830381600087803b151561034657600080fd5b6102c65a03f1151561035757600080fd5b5050600054600160a060020a0316905063f6f8ca07336101f460405160e060020a63ffffffff8516028152600160a060020a0390921660048301526024820152604401600060405180830381600087803b15156103b357600080fd5b6102c65a03f115156103c457600080fd5b5050506001915050905600a165627a7a72305820eeda23f673bd121e6c582263838c6c0b3099c6be88c6da76ed39d378e33d0c2b00296060604052341561000f57600080fd5b6040516020806122698339810160405280805160008054600160a060020a03909216600160a060020a03199092169190911790555050612215806100546000396000f3006060604052600436106100b65763ffffffff60e060020a60003504166345a4658b81146100bb57806350ccc67e146100e25780635e79b8ea146100f557806370deb2551461010857806384f2a359146101245780638938124a14610137578063a71aac6d1461014a578063acc2cac61461015d578063b50db38314610170578063df58a2f114610183578063ed83eb0c14610196578063efaa916d146101a9578063f012c7a8146101bc578063f3284ad1146101cf575b600080fd5b34156100c657600080fd5b6100ce6101e2565b604051901515815260200160405180910390f35b34156100ed57600080fd5b6100ce6103b3565b341561010057600080fd5b6100ce6105a2565b341561011357600080fd5b61012261ffff60043516610764565b005b341561012f57600080fd5b6100ce610892565b341561014257600080fd5b6100ce610a5b565b341561015557600080fd5b6100ce610c32565b341561016857600080fd5b6100ce610e72565b341561017b57600080fd5b6100ce61101d565b341561018e57600080fd5b6100ce611313565b34156101a157600080fd5b6100ce6114be565b34156101b457600080fd5b6100ce61163f565b34156101c757600080fd5b6100ce6117ab565b34156101da57600080fd5b6100ce611ab5565b60008054600160a060020a0316634b1ec20c600a600160405160e060020a63ffffffff851602815261ffff909216600483015215156024820152604401600060405180830381600087803b151561023857600080fd5b6102c65a03f1151561024957600080fd5b505060008054600160a060020a031691506337c7494890600a906040516020015260405160e060020a63ffffffff841602815261ffff9091166004820152602401602060405180830381600087803b15156102a357600080fd5b6102c65a03f115156102b457600080fd5b5050506040518051151560011490506102c957fe5b60008054600160a060020a031690634b1ec20c90600a9060405160e060020a63ffffffff851602815261ffff909216600483015215156024820152604401600060405180830381600087803b151561032057600080fd5b6102c65a03f1151561033157600080fd5b505060008054600160a060020a031691506337c7494890600a906040516020015260405160e060020a63ffffffff841602815261ffff9091166004820152602401602060405180830381600087803b151561038b57600080fd5b6102c65a03f1151561039c57600080fd5b50505060405180511590506103ad57fe5b50600190565b60008054600160a060020a031663d5c98db1600a3360405160e060020a63ffffffff851602815261ffff9092166004830152600160a060020a03166024820152604401600060405180830381600087803b151561040f57600080fd5b6102c65a03f1151561042057600080fd5b505060008054600160a060020a0333811693501690632ccaa3e990600a906040516020015260405160e060020a63ffffffff841602815261ffff9091166004820152602401602060405180830381600087803b151561047e57600080fd5b6102c65a03f1151561048f57600080fd5b50505060405180519050600160a060020a03161415156104ab57fe5b600054600160a060020a031663d5c98db1600a3060405160e060020a63ffffffff851602815261ffff9092166004830152600160a060020a03166024820152604401600060405180830381600087803b151561050657600080fd5b6102c65a03f1151561051757600080fd5b505060008054600160a060020a0330811693501690632ccaa3e990600a906040516020015260405160e060020a63ffffffff841602815261ffff9091166004820152602401602060405180830381600087803b151561057557600080fd5b6102c65a03f1151561058657600080fd5b50505060405180519050600160a060020a03161415156103ad57fe5b60008054600160a060020a031663c19358bb600a3360405160e060020a63ffffffff851602815261ffff9092166004830152600160a060020a03166024820152604401600060405180830381600087803b15156105fe57600080fd5b6102c65a03f1151561060f57600080fd5b505060008054600160a060020a033381169350169063ba8c0c9d90600a906040516020015260405160e060020a63ffffffff841602815261ffff9091166004820152602401602060405180830381600087803b151561066d57600080fd5b6102c65a03f1151561067e57600080fd5b50505060405180519050600160a060020a031614151561069a57fe5b600054600160a060020a031663c19358bb600a3060405160e060020a63ffffffff851602815261ffff9092166004830152600160a060020a03166024820152604401600060405180830381600087803b15156106f557600080fd5b6102c65a03f1151561070657600080fd5b505060008054600160a060020a033081169350169063ba8c0c9d90600a906040516020015260405160e060020a63ffffffff841602815261ffff9091166004820152602401602060405180830381600087803b151561057557600080fd5b61076c6121a9565b60008054600160a060020a0316634b1ec20c84600160405160e060020a63ffffffff851602815261ffff909216600483015215156024820152604401600060405180830381600087803b15156107c157600080fd5b6102c65a03f115156107d257600080fd5b505050600090505b60058110156107ff576103098282600581106107f257fe5b60200201526001016107da565b600054600160a060020a031663eb39bc90848460405160e060020a63ffffffff851602815261ffff831660048201908152906024018260a080838360005b8381101561085557808201518382015260200161083d565b5050505090500192505050600060405180830381600087803b151561087957600080fd5b6102c65a03f1151561088a57600080fd5b505050505050565b60008054600160a060020a0316636d87b65c600a61271060405160e060020a63ffffffff851602815261ffff90921660048301526024820152604401600060405180830381600087803b15156108e757600080fd5b6102c65a03f115156108f857600080fd5b505060008054600160a060020a03169150631bbc795290600a906040516020015260405160e060020a63ffffffff841602815261ffff9091166004820152602401602060405180830381600087803b151561095257600080fd5b6102c65a03f1151561096357600080fd5b505050604051805161271014905061097757fe5b600054600160a060020a0316636d87b65c600a61022b60405160e060020a63ffffffff851602815261ffff90921660048301526024820152604401600060405180830381600087803b15156109cb57600080fd5b6102c65a03f115156109dc57600080fd5b505060008054600160a060020a03169150631bbc795290600a906040516020015260405160e060020a63ffffffff841602815261ffff9091166004820152602401602060405180830381600087803b1515610a3657600080fd5b6102c65a03f11515610a4757600080fd5b505050604051805161022b1490506103ad57fe5b6000805442906032820190600160a060020a031663411b65ef600a8460405160e060020a63ffffffff851602815261ffff90921660048301526024820152604401600060405180830381600087803b1515610ab557600080fd5b6102c65a03f11515610ac657600080fd5b505060008054849250600160a060020a0316906323b11bb190600a906040516020015260405160e060020a63ffffffff841602815261ffff9091166004820152602401602060405180830381600087803b1515610b2257600080fd5b6102c65a03f11515610b3357600080fd5b50505060405180519050141515610b4657fe5b600054600160a060020a031663411b65ef600a8360405160e060020a63ffffffff851602815261ffff90921660048301526024820152604401600060405180830381600087803b1515610b9857600080fd5b6102c65a03f11515610ba957600080fd5b505060008054839250600160a060020a0316906323b11bb190600a906040516020015260405160e060020a63ffffffff841602815261ffff9091166004820152602401602060405180830381600087803b1515610c0557600080fd5b6102c65a03f11515610c1657600080fd5b50505060405180519050141515610c2957fe5b60019250505090565b6000610c3c6121d0565b610c446121d0565b60008054600160a060020a031690638b9997fd9033906040516040015260405160e060020a63ffffffff8416028152600160a060020a0390911660048201526024016040805180830381600087803b1515610c9e57600080fd5b6102c65a03f11515610caf57600080fd5b50505060405160408082019052915061d903816000602002015261f7dd8160016020020152600054600160a060020a031663606bc9a5338360405160e060020a63ffffffff8516028152600160a060020a038316600482019081529060240182604080838360005b83811015610d2f578082015183820152602001610d17565b5050505090500192505050600060405180830381600087803b1515610d5357600080fd5b6102c65a03f11515610d6457600080fd5b50829150505160008054600160a060020a031690638b9997fd9033906040516040015260405160e060020a63ffffffff8416028152600160a060020a0390911660048201526024016040805180830381600087803b1515610dc457600080fd5b6102c65a03f11515610dd557600080fd5b505050604051604081810190525114610dea57fe5b602081015160008054600160a060020a031690638b9997fd9033906040516040015260405160e060020a63ffffffff8416028152600160a060020a0390911660048201526024016040805180830381600087803b1515610e4957600080fd5b6102c65a03f11515610e5a57600080fd5b505050604051604081810190526020015114610c2957fe5b60008054429061022b820190600160a060020a03166317e0aeb8600a8460405160e060020a63ffffffff851602815261ffff90921660048301526024820152604401600060405180830381600087803b1515610ecd57600080fd5b6102c65a03f11515610ede57600080fd5b505060008054849250600160a060020a0316906399b2904490600a906040516020015260405160e060020a63ffffffff841602815261ffff9091166004820152602401602060405180830381600087803b1515610f3a57600080fd5b6102c65a03f11515610f4b57600080fd5b50505060405180519050141515610f5e57fe5b600054600160a060020a03166317e0aeb8600a8360405160e060020a63ffffffff851602815261ffff90921660048301526024820152604401600060405180830381600087803b1515610fb057600080fd5b6102c65a03f11515610fc157600080fd5b505060008054839250600160a060020a0316906399b2904490600a906040516020015260405160e060020a63ffffffff841602815261ffff9091166004820152602401602060405180830381600087803b1515610c0557600080fd5b600080548190600160a060020a03166337c74948600a836040516020015260405160e060020a63ffffffff841602815261ffff9091166004820152602401602060405180830381600087803b151561107457600080fd5b6102c65a03f1151561108557600080fd5b5050506040518051600054909250600160a060020a0316905063886b148d600a83156103e8610bb861138860405160e060020a63ffffffff881602815261ffff9095166004860152921515602485015260448401919091526064830152608482015260a401600060405180830381600087803b151561110357600080fd5b6102c65a03f1151561111457600080fd5b50506000805483159250600160a060020a0316906337c7494890600a906040516020015260405160e060020a63ffffffff841602815261ffff9091166004820152602401602060405180830381600087803b151561117157600080fd5b6102c65a03f1151561118257600080fd5b50505060405180519050151514151561119757fe5b60008054600160a060020a0316906399b2904490600a906040516020015260405160e060020a63ffffffff841602815261ffff9091166004820152602401602060405180830381600087803b15156111ee57600080fd5b6102c65a03f115156111ff57600080fd5b50505060405180516103e814905061121357fe5b60008054600160a060020a0316906323b11bb190600a906040516020015260405160e060020a63ffffffff841602815261ffff9091166004820152602401602060405180830381600087803b151561126a57600080fd5b6102c65a03f1151561127b57600080fd5b5050506040518051610bb814905061128f57fe5b60008054600160a060020a03169063fc9ede6590600a906040516020015260405160e060020a63ffffffff841602815261ffff9091166004820152602401602060405180830381600087803b15156112e657600080fd5b6102c65a03f115156112f757600080fd5b505050604051805161138814905061130b57fe5b600191505090565b60008054429061270f820190600160a060020a031663b4cc2181600a8460405160e060020a63ffffffff851602815261ffff90921660048301526024820152604401600060405180830381600087803b151561136e57600080fd5b6102c65a03f1151561137f57600080fd5b505060008054849250600160a060020a03169063fc9ede6590600a906040516020015260405160e060020a63ffffffff841602815261ffff9091166004820152602401602060405180830381600087803b15156113db57600080fd5b6102c65a03f115156113ec57600080fd5b505050604051805190501415156113ff57fe5b600054600160a060020a031663b4cc2181600a8360405160e060020a63ffffffff851602815261ffff90921660048301526024820152604401600060405180830381600087803b151561145157600080fd5b6102c65a03f1151561146257600080fd5b505060008054839250600160a060020a03169063fc9ede6590600a906040516020015260405160e060020a63ffffffff841602815261ffff9091166004820152602401602060405180830381600087803b1515610c0557600080fd5b600080544290600160a060020a03166315f59033600a338460405160e060020a63ffffffff861602815261ffff9093166004840152600160a060020a0390911660248301526044820152606401600060405180830381600087803b151561152457600080fd5b6102c65a03f1151561153557600080fd5b505060008054600160a060020a033381169350169063ba8c0c9d90600a906040516020015260405160e060020a63ffffffff841602815261ffff9091166004820152602401602060405180830381600087803b151561159357600080fd5b6102c65a03f115156115a457600080fd5b50505060405180519050600160a060020a03161415156115c057fe5b600080548291600160a060020a03909116906323b11bb190600a906040516020015260405160e060020a63ffffffff841602815261ffff9091166004820152602401602060405180830381600087803b151561161b57600080fd5b6102c65a03f1151561162c57600080fd5b5050506040518051905014151561130b57fe5b60008054600160a060020a031663c575200d600a61c35061ea6060405160e060020a63ffffffff861602815261ffff909316600484015260248301919091526044820152606401600060405180830381600087803b151561169f57600080fd5b6102c65a03f115156116b057600080fd5b505060008054600160a060020a0316915063fc9ede6590600a906040516020015260405160e060020a63ffffffff841602815261ffff9091166004820152602401602060405180830381600087803b151561170a57600080fd5b6102c65a03f1151561171b57600080fd5b505050604051805161c35014905061172f57fe5b60008054600160a060020a0316906399b2904490600a906040516020015260405160e060020a63ffffffff841602815261ffff9091166004820152602401602060405180830381600087803b151561178657600080fd5b6102c65a03f1151561179757600080fd5b505050604051805161ea601490506103ad57fe5b600080548190600160a060020a03166337c74948600a836040516020015260405160e060020a63ffffffff841602815261ffff9091166004820152602401602060405180830381600087803b151561180257600080fd5b6102c65a03f1151561181357600080fd5b5050506040518051600054909250600160a060020a0316905063b9e58ab0600a336103e88515600360405160e060020a63ffffffff881602815261ffff9095166004860152600160a060020a03909316602485015260448401919091521515606483015260ff16608482015260a401600060405180830381600087803b151561189b57600080fd5b6102c65a03f115156118ac57600080fd5b505060008054600160a060020a0333811693501690632ccaa3e990600a906040516020015260405160e060020a63ffffffff841602815261ffff9091166004820152602401602060405180830381600087803b151561190a57600080fd5b6102c65a03f1151561191b57600080fd5b50505060405180519050600160a060020a031614151561193757fe5b60008054600160a060020a031690631bbc795290600a906040516020015260405160e060020a63ffffffff841602815261ffff9091166004820152602401602060405180830381600087803b151561198e57600080fd5b6102c65a03f1151561199f57600080fd5b50505060405180516103e81490506119b357fe5b60008054821591600160a060020a03909116906337c7494890600a906040516020015260405160e060020a63ffffffff841602815261ffff9091166004820152602401602060405180830381600087803b1515611a0f57600080fd5b6102c65a03f11515611a2057600080fd5b505050604051805190501515141515611a3557fe5b60008054600160a060020a0316906398864aaf90600a906040516020015260405160e060020a63ffffffff841602815261ffff9091166004820152602401602060405180830381600087803b1515611a8c57600080fd5b6102c65a03f11515611a9d57600080fd5b5050506040518051905060ff16600314151561130b57fe5b60008054819081908190819081908190600160a060020a03166318160ddd82604051602001526040518163ffffffff1660e060020a028152600401602060405180830381600087803b1515611b0957600080fd5b6102c65a03f11515611b1a57600080fd5b505050604051805160008054919850600160a060020a0390911691506370a082319033906040516020015260405160e060020a63ffffffff8416028152600160a060020a039091166004820152602401602060405180830381600087803b1515611b8357600080fd5b6102c65a03f11515611b9457600080fd5b505050604051805160008054919750600160a060020a0390911691506370a082319030906040516020015260405160e060020a63ffffffff8416028152600160a060020a039091166004820152602401602060405180830381600087803b1515611bfd57600080fd5b6102c65a03f11515611c0e57600080fd5b5050506040518051600054909550600160a060020a031690506326728b143361271060405160e060020a63ffffffff8516028152600160a060020a0390921660048301526024820152604401600060405180830381600087803b1515611c7357600080fd5b6102c65a03f11515611c8457600080fd5b5050600054600160a060020a031690506326728b143360c860405160e060020a63ffffffff8516028152600160a060020a0390921660048301526024820152604401600060405180830381600087803b1515611cdf57600080fd5b6102c65a03f11515611cf057600080fd5b5050600054600160a060020a031690506326728b143061138860405160e060020a63ffffffff8516028152600160a060020a0390921660048301526024820152604401600060405180830381600087803b1515611d4c57600080fd5b6102c65a03f11515611d5d57600080fd5b5050600054600160a060020a0316905063f6f8ca07336103e860405160e060020a63ffffffff8516028152600160a060020a0390921660048301526024820152604401600060405180830381600087803b1515611db957600080fd5b6102c65a03f11515611dca57600080fd5b5050600054600160a060020a031690506326728b1433603260405160e060020a63ffffffff8516028152600160a060020a0390921660048301526024820152604401600060405180830381600087803b1515611e2557600080fd5b6102c65a03f11515611e3657600080fd5b5050600054600160a060020a0316905063f6f8ca0730610bb860405160e060020a63ffffffff8516028152600160a060020a0390921660048301526024820152604401600060405180830381600087803b1515611e9257600080fd5b6102c65a03f11515611ea357600080fd5b5050600054600160a060020a031690506326728b1430606460405160e060020a63ffffffff8516028152600160a060020a0390921660048301526024820152604401600060405180830381600087803b1515611efe57600080fd5b6102c65a03f11515611f0f57600080fd5b5050600054600160a060020a0316905063f6f8ca0730603260405160e060020a63ffffffff8516028152600160a060020a0390921660048301526024820152604401600060405180830381600087803b1515611f6a57600080fd5b6102c65a03f11515611f7b57600080fd5b5050600054600160a060020a0316905063121c2b3530600a816064338160405160e060020a63ffffffff8916028152600160a060020a039687166004820152602481019590955292851660448501526064840191909152909216608482015260a481019190915260c401600060405180830381600087803b1515611ffe57600080fd5b6102c65a03f1151561200f57600080fd5b505060008054612486955061085c9450612ce289019350839250600160a060020a0316906318160ddd90604051602001526040518163ffffffff1660e060020a028152600401602060405180830381600087803b151561206e57600080fd5b6102c65a03f1151561207f57600080fd5b5050506040518051905014151561209257fe5b6000805486850191600160a060020a03909116906370a082319033906040516020015260405160e060020a63ffffffff8416028152600160a060020a039091166004820152602401602060405180830381600087803b15156120f357600080fd5b6102c65a03f1151561210457600080fd5b5050506040518051905014151561211757fe5b6000805485840191600160a060020a03909116906370a082319030906040516020015260405160e060020a63ffffffff8416028152600160a060020a039091166004820152602401602060405180830381600087803b151561217857600080fd5b6102c65a03f1151561218957600080fd5b5050506040518051905014151561219c57fe5b6001965050505050505090565b60a06040519081016040526005815b60008152602001906001900390816121b85790505090565b60408051908101604052600081526001602082016121b85600a165627a7a723058206f143ca7ce188dd9c18bb4a7b4ee65207b55913f0236e5f52043009c6cfb3d8000296060604052341561000f57600080fd5b6040516020806109318339810160405280805160008054600160a060020a03909216600160a060020a031990921691909117905550506108dd806100546000396000f3006060604052600436106100485763ffffffff60e060020a600035041663a40a7d04811461004d578063a71aac6d14610074578063ab1ee9e314610087578063cdcac93c1461009a575b600080fd5b341561005857600080fd5b6100606100ad565b604051901515815260200160405180910390f35b341561007f57600080fd5b610060610428565b341561009257600080fd5b6100606105e5565b34156100a557600080fd5b6100606106e5565b60006100b7610871565b6100bf610871565b60008054600160a060020a03169063e86994ea9060329060405160a0015260405160e060020a63ffffffff841602815261ffff909116600482015260240160a060405180830381600087803b151561011657600080fd5b6102c65a03f1151561012757600080fd5b50505060405160a081016040529150815115801561014757506040820151155b801561015557506080820151155b151561015d57fe5b600a816002602002015260638160046020020152600054600160a060020a031663eb39bc9060328360405160e060020a63ffffffff851602815261ffff831660048201908152906024018260a080838360005b838110156101c85780820151838201526020016101b0565b5050505090500192505050600060405180830381600087803b15156101ec57600080fd5b6102c65a03f115156101fd57600080fd5b505060008054600160a060020a0316915063e86994ea9060329060405160a0015260405160e060020a63ffffffff841602815261ffff909116600482015260240160a060405180830381600087803b151561025757600080fd5b6102c65a03f1151561026857600080fd5b50505060405160a0810160409081520151600a1461028257fe5b60008054600160a060020a03169063e86994ea9060329060405160a0015260405160e060020a63ffffffff841602815261ffff909116600482015260240160a060405180830381600087803b15156102d957600080fd5b6102c65a03f115156102ea57600080fd5b50505060405160a081016040526080015160631461030457fe5b60428160026020020152600054600160a060020a031663eb39bc9060328360405160e060020a63ffffffff851602815261ffff831660048201908152906024018260a080838360005b8381101561036557808201518382015260200161034d565b5050505090500192505050600060405180830381600087803b151561038957600080fd5b6102c65a03f1151561039a57600080fd5b505060008054600160a060020a0316915063e86994ea9060329060405160a0015260405160e060020a63ffffffff841602815261ffff909116600482015260240160a060405180830381600087803b15156103f457600080fd5b6102c65a03f1151561040557600080fd5b50505060405160a081016040908152015160421461041f57fe5b60019250505090565b6000610432610898565b61d903815261f7dd6020820152600054600160a060020a031663606bc9a5338360405160e060020a63ffffffff8516028152600160a060020a038316600482019081529060240182604080838360005b8381101561049a578082015183820152602001610482565b5050505090500192505050600060405180830381600087803b15156104be57600080fd5b6102c65a03f115156104cf57600080fd5b50829150505160008054600160a060020a031690638b9997fd9033906040516040015260405160e060020a63ffffffff8416028152600160a060020a0390911660048201526024016040805180830381600087803b151561052f57600080fd5b6102c65a03f1151561054057600080fd5b50505060405160408181019052511461055557fe5b602081015160008054600160a060020a031690638b9997fd9033906040516040015260405160e060020a63ffffffff8416028152600160a060020a0390911660048201526024016040805180830381600087803b15156105b457600080fd5b6102c65a03f115156105c557600080fd5b5050506040516040818101905260200151146105dd57fe5b600191505090565b60008054600160a060020a0316633953ca8b60326003602160405160e060020a63ffffffff861602815261ffff909316600484015260ff90911660248301526044820152606401600060405180830381600087803b151561064557600080fd5b6102c65a03f1151561065657600080fd5b505060008054600160a060020a0316915063c7ff2086906032906003906040516020015260405160e060020a63ffffffff851602815261ffff909216600483015260ff166024820152604401602060405180830381600087803b15156106bb57600080fd5b6102c65a03f115156106cc57600080fd5b505050604051805160211490506106df57fe5b50600190565b60006106ef610898565b61d903815261f7dd6020820152600054600160a060020a0316636fcdcb3e338360405160e060020a63ffffffff8516028152600160a060020a038316600482019081529060240182604080838360005b8381101561075757808201518382015260200161073f565b5050505090500192505050600060405180830381600087803b151561077b57600080fd5b6102c65a03f1151561078c57600080fd5b50829150505160008054600160a060020a03169063f23a8aa69033906040516040015260405160e060020a63ffffffff8416028152600160a060020a0390911660048201526024016040805180830381600087803b15156107ec57600080fd5b6102c65a03f115156107fd57600080fd5b50505060405160408181019052511461081257fe5b602081015160008054600160a060020a03169063f23a8aa69033906040516040015260405160e060020a63ffffffff8416028152600160a060020a0390911660048201526024016040805180830381600087803b15156105b457600080fd5b60a06040519081016040526005815b60008152602001906001900390816108805790505090565b60408051908101604052600081526001602082016108805600a165627a7a72305820cd767aca5bfde8d08c56312a25f6ae77a2c15c4231ec16a1d5c3aff102600b4700296060604052341561000f57600080fd5b6040516020806103038339810160405280805160008054600160a060020a03909216600160a060020a031990921691909117905550506102af806100546000396000f3006060604052600436106100325763ffffffff60e060020a6000350416638d106690811461003757806395f47e4e1461006b575b600080fd5b341561004257600080fd5b61005761ffff6004351660ff60243516610090565b604051901515815260200160405180910390f35b341561007657600080fd5b610057600160a060020a036004351660ff6024351661020c565b60008054600160a060020a0316638d106690848460405160e060020a63ffffffff851602815261ffff909216600483015260ff166024820152604401600060405180830381600087803b15156100e557600080fd5b6102c65a03f115156100f657600080fd5b50506000805460ff85169250600160a060020a0316906398864aaf9086906040516020015260405160e060020a63ffffffff841602815261ffff9091166004820152602401602060405180830381600087803b151561015457600080fd5b6102c65a03f1151561016557600080fd5b5050506040518051905060ff1614151561017b57fe5b8160ff16600214156102035760008054600160a060020a03169063e86994ea90859060405160a0015260405160e060020a63ffffffff841602815261ffff909116600482015260240160a060405180830381600087803b15156101dd57600080fd5b6102c65a03f115156101ee57600080fd5b50505060405160a08101604052511561020357fe5b50600192915050565b60008054600160a060020a03166395f47e4e848460405160e060020a63ffffffff8516028152600160a060020a03909216600483015260ff166024820152604401600060405180830381600087803b151561026657600080fd5b6102c65a03f1151561027757600080fd5b506001959450505050505600a165627a7a7230582061521feb7261ba1efba8efdba1c42a910e83bcec839f2ff0b3a0e384dac8977b0029a165627a7a72305820029eadeb316f12488fffd7826bbda86c766327e757daa9ae160755520bb0afe70029",
  "linkReferences": {},
  "deployedLinkReferences": {}
}