{
  "_format": "hh-sol-artifact-1",
  "contractName": "PXLProperty_PixelPropertyAccess_UnitTests",
  "sourceName": "contracts/PXLPropertyUnitTests.sol",
  "abi": [
    {
      "constant": false,
      "inputs": [],
      "name": "setPropertyPrivateMode_Test",
      "outputs": [
        {
          "name": "",
          "type": "bool"
        }
      ],
      "payable": false,
      "stateMutability": "nonpayable",
      "type": "function"
    },
    {
      "constant": false,
      "inputs": [],
      "name": "setPropertyOwner_Test",
      "outputs": [
        {
          "name": "",
          "type": "bool"
        }
      ],
      "payable": false,
      "stateMutability": "nonpayable",
      "type": "function"
    },
    {
      "constant": false,
      "inputs": [],
      "name": "setPropertyLastUpdater_Test",
      "outputs": [
        {
          "name": "",
          "type": "bool"
        }
      ],
      "payable": false,
      "stateMutability": "nonpayable",
      "type": "function"
    },
    {
      "constant": false,
      "inputs": [
        {
          "name": "propertyID",
          "type": "uint16"
        }
      ],
      "name": "setPropertyPrivateModeToBan",
      "outputs": [],
      "payable": false,
      "stateMutability": "nonpayable",
      "type": "function"
    },
    {
      "constant": false,
      "inputs": [],
      "name": "setPropertySalePrice_Test",
      "outputs": [
        {
          "name": "",
          "type": "bool"
        }
      ],
      "payable": false,
      "stateMutability": "nonpayable",
      "type": "function"
    },
    {
      "constant": false,
      "inputs": [],
      "name": "setPropertyLastUpdate_Test",
      "outputs": [
        {
          "name": "",
          "type": "bool"
        }
      ],
      "payable": false,
      "stateMutability": "nonpayable",
      "type": "function"
    },
    {
      "constant": false,
      "inputs": [],
      "name": "setOwnerHoverText_Test",
      "outputs": [
        {
          "name": "",
          "type": "bool"
        }
      ],
      "payable": false,
      "stateMutability": "nonpayable",
      "type": "function"
    },
    {
      "constant": false,
      "inputs": [],
      "name": "setPropertyEarnUntil_Test",
      "outputs": [
        {
          "name": "",
          "type": "bool"
        }
      ],
      "payable": false,
      "stateMutability": "nonpayable",
      "type": "function"
    },
    {
      "constant": false,
      "inputs": [],
      "name": "setPropertyPrivateModeEarnUntilLastUpdateBecomePublic_Test",
      "outputs": [
        {
          "name": "",
          "type": "bool"
        }
      ],
      "payable": false,
      "stateMutability": "nonpayable",
      "type": "function"
    },
    {
      "constant": false,
      "inputs": [],
      "name": "setPropertyBecomePublic_Test",
      "outputs": [
        {
          "name": "",
          "type": "bool"
        }
      ],
      "payable": false,
      "stateMutability": "nonpayable",
      "type": "function"
    },
    {
      "constant": false,
      "inputs": [],
      "name": "setPropertyLastUpdaterLastUpdate_Test",
      "outputs": [
        {
          "name": "",
          "type": "bool"
        }
      ],
      "payable": false,
      "stateMutability": "nonpayable",
      "type": "function"
    },
    {
      "constant": false,
      "inputs": [],
      "name": "setPropertyBecomePublicEarnUntil_Test",
      "outputs": [
        {
          "name": "",
          "type": "bool"
        }
      ],
      "payable": false,
      "stateMutability": "nonpayable",
      "type": "function"
    },
    {
      "constant": false,
      "inputs": [],
      "name": "setPropertyOwnerSalePricePrivateModeFlag_Test",
      "outputs": [
        {
          "name": "",
          "type": "bool"
        }
      ],
      "payable": false,
      "stateMutability": "nonpayable",
      "type": "function"
    },
    {
      "constant": false,
      "inputs": [],
      "name": "rewardPXLburnPXL_Test",
      "outputs": [
        {
          "name": "",
          "type": "bool"
        }
      ],
      "payable": false,
      "stateMutability": "nonpayable",
      "type": "function"
    },
    {
      "inputs": [
        {
          "name": "pxlPropertyAddress",
          "type": "address"
        }
      ],
      "payable": false,
      "stateMutability": "nonpayable",
      "type": "constructor"
    }
  ],
  "bytecode": "0x6060604052341561000f57600080fd5b6040516020806122698339810160405280805160008054600160a060020a03909216600160a060020a03199092169190911790555050612215806100546000396000f3006060604052600436106100b65763ffffffff60e060020a60003504166345a4658b81146100bb57806350ccc67e146100e25780635e79b8ea146100f557806370deb2551461010857806384f2a359146101245780638938124a14610137578063a71aac6d1461014a578063acc2cac61461015d578063b50db38314610170578063df58a2f114610183578063ed83eb0c14610196578063efaa916d146101a9578063f012c7a8146101bc578063f3284ad1146101cf575b600080fd5b34156100c657600080fd5b6100ce6101e2565b604051901515815260200160405180910390f35b34156100ed57600080fd5b6100ce6103b3565b341561010057600080fd5b6100ce6105a2565b341561011357600080fd5b61012261ffff60043516610764565b005b341561012f57600080fd5b6100ce610892565b341561014257600080fd5b6100ce610a5b565b341561015557600080fd5b6100ce610c32565b341561016857600080fd5b6100ce610e72565b341561017b57600080fd5b6100ce61101d565b341561018e57600080fd5b6100ce611313565b34156101a157600080fd5b6100ce6114be565b34156101b457600080fd5b6100ce61163f565b34156101c757600080fd5b6100ce6117ab565b34156101da57600080fd5b6100ce611ab5565b60008054600160a060020a0316634b1ec20c600a600160405160e060020a63ffffffff851602815261ffff909216600483015215156024820152604401600060405180830381600087803b151561023857600080fd5b6102c65a03f1151561024957600080fd5b505060008054600160a060020a031691506337c7494890600a906040516020015260405160e060020a63ffffffff841602815261ffff9091166004820152602401602060405180830381600087803b15156102a357600080fd5b6102c65a03f115156102b457600080fd5b5050506040518051151560011490506102c957fe5b60008054600160a060020a031690634b1ec20c90600a9060405160e060020a63ffffffff851602815261ffff909216600483015215156024820152604401600060405180830381600087803b151561032057600080fd5b6102c65a03f1151561033157600080fd5b505060008054600160a060020a031691506337c7494890600a906040516020015260405160e060020a63ffffffff841602815261ffff9091166004820152602401602060405180830381600087803b151561038b57600080fd5b6102c65a03f1151561039c57600080fd5b50505060405180511590506103ad57fe5b50600190565b60008054600160a060020a031663d5c98db1600a3360405160e060020a63ffffffff851602815261ffff9092166004830152600160a060020a03166024820152604401600060405180830381600087803b151561040f57600080fd5b6102c65a03f1151561042057600080fd5b505060008054600160a060020a0333811693501690632ccaa3e990600a906040516020015260405160e060020a63ffffffff841602815261ffff9091166004820152602401602060405180830381600087803b151561047e57600080fd5b6102c65a03f1151561048f57600080fd5b50505060405180519050600160a060020a03161415156104ab57fe5b600054600160a060020a031663d5c98db1600a3060405160e060020a63ffffffff851602815261ffff9092166004830152600160a060020a03166024820152604401600060405180830381600087803b151561050657600080fd5b6102c65a03f1151561051757600080fd5b505060008054600160a060020a0330811693501690632ccaa3e990600a906040516020015260405160e060020a63ffffffff841602815261ffff9091166004820152602401602060405180830381600087803b151561057557600080fd5b6102c65a03f1151561058657600080fd5b50505060405180519050600160a060020a03161415156103ad57fe5b60008054600160a060020a031663c19358bb600a3360405160e060020a63ffffffff851602815261ffff9092166004830152600160a060020a03166024820152604401600060405180830381600087803b15156105fe57600080fd5b6102c65a03f1151561060f57600080fd5b505060008054600160a060020a033381169350169063ba8c0c9d90600a906040516020015260405160e060020a63ffffffff841602815261ffff9091166004820152602401602060405180830381600087803b151561066d57600080fd5b6102c65a03f1151561067e57600080fd5b50505060405180519050600160a060020a031614151561069a57fe5b600054600160a060020a031663c19358bb600a3060405160e060020a63ffffffff851602815261ffff9092166004830152600160a060020a03166024820152604401600060405180830381600087803b15156106f557600080fd5b6102c65a03f1151561070657600080fd5b505060008054600160a060020a033081169350169063ba8c0c9d90600a906040516020015260405160e060020a63ffffffff841602815261ffff9091166004820152602401602060405180830381600087803b151561057557600080fd5b61076c6121a9565b60008054600160a060020a0316634b1ec20c84600160405160e060020a63ffffffff851602815261ffff909216600483015215156024820152604401600060405180830381600087803b15156107c157600080fd5b6102c65a03f115156107d257600080fd5b505050600090505b60058110156107ff576103098282600581106107f257fe5b60200201526001016107da565b600054600160a060020a031663eb39bc90848460405160e060020a63ffffffff851602815261ffff831660048201908152906024018260a080838360005b8381101561085557808201518382015260200161083d565b5050505090500192505050600060405180830381600087803b151561087957600080fd5b6102c65a03f1151561088a57600080fd5b505050505050565b60008054600160a060020a0316636d87b65c600a61271060405160e060020a63ffffffff851602815261ffff90921660048301526024820152604401600060405180830381600087803b15156108e757600080fd5b6102c65a03f115156108f857600080fd5b505060008054600160a060020a03169150631bbc795290600a906040516020015260405160e060020a63ffffffff841602815261ffff9091166004820152602401602060405180830381600087803b151561095257600080fd5b6102c65a03f1151561096357600080fd5b505050604051805161271014905061097757fe5b600054600160a060020a0316636d87b65c600a61022b60405160e060020a63ffffffff851602815261ffff90921660048301526024820152604401600060405180830381600087803b15156109cb57600080fd5b6102c65a03f115156109dc57600080fd5b505060008054600160a060020a03169150631bbc795290600a906040516020015260405160e060020a63ffffffff841602815261ffff9091166004820152602401602060405180830381600087803b1515610a3657600080fd5b6102c65a03f11515610a4757600080fd5b505050604051805161022b1490506103ad57fe5b6000805442906032820190600160a060020a031663411b65ef600a8460405160e060020a63ffffffff851602815261ffff90921660048301526024820152604401600060405180830381600087803b1515610ab557600080fd5b6102c65a03f11515610ac657600080fd5b505060008054849250600160a060020a0316906323b11bb190600a906040516020015260405160e060020a63ffffffff841602815261ffff9091166004820152602401602060405180830381600087803b1515610b2257600080fd5b6102c65a03f11515610b3357600080fd5b50505060405180519050141515610b4657fe5b600054600160a060020a031663411b65ef600a8360405160e060020a63ffffffff851602815261ffff90921660048301526024820152604401600060405180830381600087803b1515610b9857600080fd5b6102c65a03f11515610ba957600080fd5b505060008054839250600160a060020a0316906323b11bb190600a906040516020015260405160e060020a63ffffffff841602815261ffff9091166004820152602401602060405180830381600087803b1515610c0557600080fd5b6102c65a03f11515610c1657600080fd5b50505060405180519050141515610c2957fe5b60019250505090565b6000610c3c6121d0565b610c446121d0565b60008054600160a060020a031690638b9997fd9033906040516040015260405160e060020a63ffffffff8416028152600160a060020a0390911660048201526024016040805180830381600087803b1515610c9e57600080fd5b6102c65a03f11515610caf57600080fd5b50505060405160408082019052915061d903816000602002015261f7dd8160016020020152600054600160a060020a031663606bc9a5338360405160e060020a63ffffffff8516028152600160a060020a038316600482019081529060240182604080838360005b83811015610d2f578082015183820152602001610d17565b5050505090500192505050600060405180830381600087803b1515610d5357600080fd5b6102c65a03f11515610d6457600080fd5b50829150505160008054600160a060020a031690638b9997fd9033906040516040015260405160e060020a63ffffffff8416028152600160a060020a0390911660048201526024016040805180830381600087803b1515610dc457600080fd5b6102c65a03f11515610dd557600080fd5b505050604051604081810190525114610dea57fe5b602081015160008054600160a060020a031690638b9997fd9033906040516040015260405160e060020a63ffffffff8416028152600160a060020a0390911660048201526024016040805180830381600087803b1515610e4957600080fd5b6102c65a03f11515610e5a57600080fd5b505050604051604081810190526020015114610c2957fe5b60008054429061022b820190600160a060020a03166317e0aeb8600a8460405160e060020a63ffffffff851602815261ffff90921660048301526024820152604401600060405180830381600087803b1515610ecd57600080fd5b6102c65a03f11515610ede57600080fd5b505060008054849250600160a060020a0316906399b2904490600a906040516020015260405160e060020a63ffffffff841602815261ffff9091166004820152602401602060405180830381600087803b1515610f3a57600080fd5b6102c65a03f11515610f4b57600080fd5b50505060405180519050141515610f5e57fe5b600054600160a060020a03166317e0aeb8600a8360405160e060020a63ffffffff851602815261ffff90921660048301526024820152604401600060405180830381600087803b1515610fb057600080fd5b6102c65a03f11515610fc157600080fd5b505060008054839250600160a060020a0316906399b2904490600a906040516020015260405160e060020a63ffffffff841602815261ffff9091166004820152602401602060405180830381600087803b1515610c0557600080fd5b600080548190600160a060020a03166337c74948600a836040516020015260405160e060020a63ffffffff841602815261ffff9091166004820152602401602060405180830381600087803b151561107457600080fd5b6102c65a03f1151561108557600080fd5b5050506040518051600054909250600160a060020a0316905063886b148d600a83156103e8610bb861138860405160e060020a63ffffffff881602815261ffff9095166004860152921515602485015260448401919091526064830152608482015260a401600060405180830381600087803b151561110357600080fd5b6102c65a03f1151561111457600080fd5b50506000805483159250600160a060020a0316906337c7494890600a906040516020015260405160e060020a63ffffffff841602815261ffff9091166004820152602401602060405180830381600087803b151561117157600080fd5b6102c65a03f1151561118257600080fd5b50505060405180519050151514151561119757fe5b60008054600160a060020a0316906399b2904490600a906040516020015260405160e060020a63ffffffff841602815261ffff9091166004820152602401602060405180830381600087803b15156111ee57600080fd5b6102c65a03f115156111ff57600080fd5b50505060405180516103e814905061121357fe5b60008054600160a060020a0316906323b11bb190600a906040516020015260405160e060020a63ffffffff841602815261ffff9091166004820152602401602060405180830381600087803b151561126a57600080fd5b6102c65a03f1151561127b57600080fd5b5050506040518051610bb814905061128f57fe5b60008054600160a060020a03169063fc9ede6590600a906040516020015260405160e060020a63ffffffff841602815261ffff9091166004820152602401602060405180830381600087803b15156112e657600080fd5b6102c65a03f115156112f757600080fd5b505050604051805161138814905061130b57fe5b600191505090565b60008054429061270f820190600160a060020a031663b4cc2181600a8460405160e060020a63ffffffff851602815261ffff90921660048301526024820152604401600060405180830381600087803b151561136e57600080fd5b6102c65a03f1151561137f57600080fd5b505060008054849250600160a060020a03169063fc9ede6590600a906040516020015260405160e060020a63ffffffff841602815261ffff9091166004820152602401602060405180830381600087803b15156113db57600080fd5b6102c65a03f115156113ec57600080fd5b505050604051805190501415156113ff57fe5b600054600160a060020a031663b4cc2181600a8360405160e060020a63ffffffff851602815261ffff90921660048301526024820152604401600060405180830381600087803b151561145157600080fd5b6102c65a03f1151561146257600080fd5b505060008054839250600160a060020a03169063fc9ede6590600a906040516020015260405160e060020a63ffffffff841602815261ffff9091166004820152602401602060405180830381600087803b1515610c0557600080fd5b600080544290600160a060020a03166315f59033600a338460405160e060020a63ffffffff861602815261ffff9093166004840152600160a060020a0390911660248301526044820152606401600060405180830381600087803b151561152457600080fd5b6102c65a03f1151561153557600080fd5b505060008054600160a060020a033381169350169063ba8c0c9d90600a906040516020015260405160e060020a63ffffffff841602815261ffff9091166004820152602401602060405180830381600087803b151561159357600080fd5b6102c65a03f115156115a457600080fd5b50505060405180519050600160a060020a03161415156115c057fe5b600080548291600160a060020a03909116906323b11bb190600a906040516020015260405160e060020a63ffffffff841602815261ffff9091166004820152602401602060405180830381600087803b151561161b57600080fd5b6102c65a03f1151561162c57600080fd5b5050506040518051905014151561130b57fe5b60008054600160a060020a031663c575200d600a61c35061ea6060405160e060020a63ffffffff861602815261ffff909316600484015260248301919091526044820152606401600060405180830381600087803b151561169f57600080fd5b6102c65a03f115156116b057600080fd5b505060008054600160a060020a0316915063fc9ede6590600a906040516020015260405160e060020a63ffffffff841602815261ffff9091166004820152602401602060405180830381600087803b151561170a57600080fd5b6102c65a03f1151561171b57600080fd5b505050604051805161c35014905061172f57fe5b60008054600160a060020a0316906399b2904490600a906040516020015260405160e060020a63ffffffff841602815261ffff9091166004820152602401602060405180830381600087803b151561178657600080fd5b6102c65a03f1151561179757600080fd5b505050604051805161ea601490506103ad57fe5b600080548190600160a060020a03166337c74948600a836040516020015260405160e060020a63ffffffff841602815261ffff9091166004820152602401602060405180830381600087803b151561180257600080fd5b6102c65a03f1151561181357600080fd5b5050506040518051600054909250600160a060020a0316905063b9e58ab0600a336103e88515600360405160e060020a63ffffffff881602815261ffff9095166004860152600160a060020a03909316602485015260448401919091521515606483015260ff16608482015260a401600060405180830381600087803b151561189b57600080fd5b6102c65a03f115156118ac57600080fd5b505060008054600160a060020a0333811693501690632ccaa3e990600a906040516020015260405160e060020a63ffffffff841602815261ffff9091166004820152602401602060405180830381600087803b151561190a57600080fd5b6102c65a03f1151561191b57600080fd5b50505060405180519050600160a060020a031614151561193757fe5b60008054600160a060020a031690631bbc795290600a906040516020015260405160e060020a63ffffffff841602815261ffff9091166004820152602401602060405180830381600087803b151561198e57600080fd5b6102c65a03f1151561199f57600080fd5b50505060405180516103e81490506119b357fe5b60008054821591600160a060020a03909116906337c7494890600a906040516020015260405160e060020a63ffffffff841602815261ffff9091166004820152602401602060405180830381600087803b1515611a0f57600080fd5b6102c65a03f11515611a2057600080fd5b505050604051805190501515141515611a3557fe5b60008054600160a060020a0316906398864aaf90600a906040516020015260405160e060020a63ffffffff841602815261ffff9091166004820152602401602060405180830381600087803b1515611a8c57600080fd5b6102c65a03f11515611a9d57600080fd5b5050506040518051905060ff16600314151561130b57fe5b60008054819081908190819081908190600160a060020a03166318160ddd82604051602001526040518163ffffffff1660e060020a028152600401602060405180830381600087803b1515611b0957600080fd5b6102c65a03f11515611b1a57600080fd5b505050604051805160008054919850600160a060020a0390911691506370a082319033906040516020015260405160e060020a63ffffffff8416028152600160a060020a039091166004820152602401602060405180830381600087803b1515611b8357600080fd5b6102c65a03f11515611b9457600080fd5b505050604051805160008054919750600160a060020a0390911691506370a082319030906040516020015260405160e060020a63ffffffff8416028152600160a060020a039091166004820152602401602060405180830381600087803b1515611bfd57600080fd5b6102c65a03f11515611c0e57600080fd5b5050506040518051600054909550600160a060020a031690506326728b143361271060405160e060020a63ffffffff8516028152600160a060020a0390921660048301526024820152604401600060405180830381600087803b1515611c7357600080fd5b6102c65a03f11515611c8457600080fd5b5050600054600160a060020a031690506326728b143360c860405160e060020a63ffffffff8516028152600160a060020a0390921660048301526024820152604401600060405180830381600087803b1515611cdf57600080fd5b6102c65a03f11515611cf057600080fd5b5050600054600160a060020a031690506326728b143061138860405160e060020a63ffffffff8516028152600160a060020a0390921660048301526024820152604401600060405180830381600087803b1515611d4c57600080fd5b6102c65a03f11515611d5d57600080fd5b5050600054600160a060020a0316905063f6f8ca07336103e860405160e060020a63ffffffff8516028152600160a060020a0390921660048301526024820152604401600060405180830381600087803b1515611db957600080fd5b6102c65a03f11515611dca57600080fd5b5050600054600160a060020a031690506326728b1433603260405160e060020a63ffffffff8516028152600160a060020a0390921660048301526024820152604401600060405180830381600087803b1515611e2557600080fd5b6102c65a03f11515611e3657600080fd5b5050600054600160a060020a0316905063f6f8ca0730610bb860405160e060020a63ffffffff8516028152600160a060020a0390921660048301526024820152604401600060405180830381600087803b1515611e9257600080fd5b6102c65a03f11515611ea357600080fd5b5050600054600160a060020a031690506326728b1430606460405160e060020a63ffffffff8516028152600160a060020a0390921660048301526024820152604401600060405180830381600087803b1515611efe57600080fd5b6102c65a03f11515611f0f57600080fd5b5050600054600160a060020a0316905063f6f8ca0730603260405160e060020a63ffffffff8516028152600160a060020a0390921660048301526024820152604401600060405180830381600087803b1515611f6a57600080fd5b6102c65a03f11515611f7b57600080fd5b5050600054600160a060020a0316905063121c2b3530600a816064338160405160e060020a63ffffffff8916028152600160a060020a039687166004820152602481019590955292851660448501526064840191909152909216608482015260a481019190915260c401600060405180830381600087803b1515611ffe57600080fd5b6102c65a03f1151561200f57600080fd5b505060008054612486955061085c9450612ce289019350839250600160a060020a0316906318160ddd90604051602001526040518163ffffffff1660e060020a028152600401602060405180830381600087803b151561206e57600080fd5b6102c65a03f1151561207f57600080fd5b5050506040518051905014151561209257fe5b6000805486850191600160a060020a03909116906370a082319033906040516020015260405160e060020a63ffffffff8416028152600160a060020a039091166004820152602401602060405180830381600087803b15156120f357600080fd5b6102c65a03f1151561210457600080fd5b5050506040518051905014151561211757fe5b6000805485840191600160a060020a03909116906370a082319030906040516020015260405160e060020a63ffffffff8416028152600160a060020a039091166004820152602401602060405180830381600087803b151561217857600080fd5b6102c65a03f1151561218957600080fd5b5050506040518051905014151561219c57fe5b6001965050505050505090565b60a06040519081016040526005815b60008152602001906001900390816121b85790505090565b60408051908101604052600081526001602082016121b85600a165627a7a723058206f143ca7ce188dd9c18bb4a7b4ee65207b55913f0236e5f52043009c6cfb3d800029",
  "linkReferences": {},
  "deployedLinkReferences": {}
}