{
  "_format": "hh-sol-artifact-1",
  "contractName": "PXLProperty_Regulator",
  "sourceName": "contracts/PXLPropertyUnitTests.sol",
  "abi": [
    {
      "constant": false,
      "inputs": [
        {
          "name": "propertyID",
          "type": "uint16"
        },
        {
          "name": "flag",
          "type": "uint8"
        }
      ],
      "name": "setPropertyFlag",
      "outputs": [
        {
          "name": "",
          "type": "bool"
        }
      ],
      "payable": false,
      "stateMutability": "nonpayable",
      "type": "function"
    },
    {
      "constant": false,
      "inputs": [
        {
          "name": "user",
          "type": "address"
        },
        {
          "name": "level",
          "type": "uint8"
        }
      ],
      "name": "setRegulatorAccessLevel",
      "outputs": [
        {
          "name": "",
          "type": "bool"
        }
      ],
      "payable": false,
      "stateMutability": "nonpayable",
      "type": "function"
    },
    {
      "inputs": [
        {
          "name": "pxlPropertyAddress",
          "type": "address"
        }
      ],
      "payable": false,
      "stateMutability": "nonpayable",
      "type": "constructor"
    }
  ],
  "bytecode": "0x6060604052341561000f57600080fd5b6040516020806103038339810160405280805160008054600160a060020a03909216600160a060020a031990921691909117905550506102af806100546000396000f3006060604052600436106100325763ffffffff60e060020a6000350416638d106690811461003757806395f47e4e1461006b575b600080fd5b341561004257600080fd5b61005761ffff6004351660ff60243516610090565b604051901515815260200160405180910390f35b341561007657600080fd5b610057600160a060020a036004351660ff6024351661020c565b60008054600160a060020a0316638d106690848460405160e060020a63ffffffff851602815261ffff909216600483015260ff166024820152604401600060405180830381600087803b15156100e557600080fd5b6102c65a03f115156100f657600080fd5b50506000805460ff85169250600160a060020a0316906398864aaf9086906040516020015260405160e060020a63ffffffff841602815261ffff9091166004820152602401602060405180830381600087803b151561015457600080fd5b6102c65a03f1151561016557600080fd5b5050506040518051905060ff1614151561017b57fe5b8160ff16600214156102035760008054600160a060020a03169063e86994ea90859060405160a0015260405160e060020a63ffffffff841602815261ffff909116600482015260240160a060405180830381600087803b15156101dd57600080fd5b6102c65a03f115156101ee57600080fd5b50505060405160a08101604052511561020357fe5b50600192915050565b60008054600160a060020a03166395f47e4e848460405160e060020a63ffffffff8516028152600160a060020a03909216600483015260ff166024820152604401600060405180830381600087803b151561026657600080fd5b6102c65a03f1151561027757600080fd5b506001959450505050505600a165627a7a7230582061521feb7261ba1efba8efdba1c42a910e83bcec839f2ff0b3a0e384dac8977b0029",
  "linkReferences": {},
  "deployedLinkReferences": {}
}