{
  "_format": "hh-sol-artifact-1",
  "contractName": "PXLProperty_PropertyDAppAccess_UnitTests",
  "sourceName": "contracts/PXLPropertyUnitTests.sol",
  "abi": [
    {
      "constant": false,
      "inputs": [],
      "name": "setPropertyColors_Test",
      "outputs": [
        {
          "name": "",
          "type": "bool"
        }
      ],
      "payable": false,
      "stateMutability": "nonpayable",
      "type": "function"
    },
    {
      "constant": false,
      "inputs": [],
      "name": "setOwnerHoverText_Test",
      "outputs": [
        {
          "name": "",
          "type": "bool"
        }
      ],
      "payable": false,
      "stateMutability": "nonpayable",
      "type": "function"
    },
    {
      "constant": false,
      "inputs": [],
      "name": "setPropertyRowColor_Test",
      "outputs": [
        {
          "name": "",
          "type": "bool"
        }
      ],
      "payable": false,
      "stateMutability": "nonpayable",
      "type": "function"
    },
    {
      "constant": false,
      "inputs": [],
      "name": "setOwnerLink_Test",
      "outputs": [
        {
          "name": "",
          "type": "bool"
        }
      ],
      "payable": false,
      "stateMutability": "nonpayable",
      "type": "function"
    },
    {
      "inputs": [
        {
          "name": "pxlPropertyAddress",
          "type": "address"
        }
      ],
      "payable": false,
      "stateMutability": "nonpayable",
      "type": "constructor"
    }
  ],
  "bytecode": "0x6060604052341561000f57600080fd5b6040516020806109318339810160405280805160008054600160a060020a03909216600160a060020a031990921691909117905550506108dd806100546000396000f3006060604052600436106100485763ffffffff60e060020a600035041663a40a7d04811461004d578063a71aac6d14610074578063ab1ee9e314610087578063cdcac93c1461009a575b600080fd5b341561005857600080fd5b6100606100ad565b604051901515815260200160405180910390f35b341561007f57600080fd5b610060610428565b341561009257600080fd5b6100606105e5565b34156100a557600080fd5b6100606106e5565b60006100b7610871565b6100bf610871565b60008054600160a060020a03169063e86994ea9060329060405160a0015260405160e060020a63ffffffff841602815261ffff909116600482015260240160a060405180830381600087803b151561011657600080fd5b6102c65a03f1151561012757600080fd5b50505060405160a081016040529150815115801561014757506040820151155b801561015557506080820151155b151561015d57fe5b600a816002602002015260638160046020020152600054600160a060020a031663eb39bc9060328360405160e060020a63ffffffff851602815261ffff831660048201908152906024018260a080838360005b838110156101c85780820151838201526020016101b0565b5050505090500192505050600060405180830381600087803b15156101ec57600080fd5b6102c65a03f115156101fd57600080fd5b505060008054600160a060020a0316915063e86994ea9060329060405160a0015260405160e060020a63ffffffff841602815261ffff909116600482015260240160a060405180830381600087803b151561025757600080fd5b6102c65a03f1151561026857600080fd5b50505060405160a0810160409081520151600a1461028257fe5b60008054600160a060020a03169063e86994ea9060329060405160a0015260405160e060020a63ffffffff841602815261ffff909116600482015260240160a060405180830381600087803b15156102d957600080fd5b6102c65a03f115156102ea57600080fd5b50505060405160a081016040526080015160631461030457fe5b60428160026020020152600054600160a060020a031663eb39bc9060328360405160e060020a63ffffffff851602815261ffff831660048201908152906024018260a080838360005b8381101561036557808201518382015260200161034d565b5050505090500192505050600060405180830381600087803b151561038957600080fd5b6102c65a03f1151561039a57600080fd5b505060008054600160a060020a0316915063e86994ea9060329060405160a0015260405160e060020a63ffffffff841602815261ffff909116600482015260240160a060405180830381600087803b15156103f457600080fd5b6102c65a03f1151561040557600080fd5b50505060405160a081016040908152015160421461041f57fe5b60019250505090565b6000610432610898565b61d903815261f7dd6020820152600054600160a060020a031663606bc9a5338360405160e060020a63ffffffff8516028152600160a060020a038316600482019081529060240182604080838360005b8381101561049a578082015183820152602001610482565b5050505090500192505050600060405180830381600087803b15156104be57600080fd5b6102c65a03f115156104cf57600080fd5b50829150505160008054600160a060020a031690638b9997fd9033906040516040015260405160e060020a63ffffffff8416028152600160a060020a0390911660048201526024016040805180830381600087803b151561052f57600080fd5b6102c65a03f1151561054057600080fd5b50505060405160408181019052511461055557fe5b602081015160008054600160a060020a031690638b9997fd9033906040516040015260405160e060020a63ffffffff8416028152600160a060020a0390911660048201526024016040805180830381600087803b15156105b457600080fd5b6102c65a03f115156105c557600080fd5b5050506040516040818101905260200151146105dd57fe5b600191505090565b60008054600160a060020a0316633953ca8b60326003602160405160e060020a63ffffffff861602815261ffff909316600484015260ff90911660248301526044820152606401600060405180830381600087803b151561064557600080fd5b6102c65a03f1151561065657600080fd5b505060008054600160a060020a0316915063c7ff2086906032906003906040516020015260405160e060020a63ffffffff851602815261ffff909216600483015260ff166024820152604401602060405180830381600087803b15156106bb57600080fd5b6102c65a03f115156106cc57600080fd5b505050604051805160211490506106df57fe5b50600190565b60006106ef610898565b61d903815261f7dd6020820152600054600160a060020a0316636fcdcb3e338360405160e060020a63ffffffff8516028152600160a060020a038316600482019081529060240182604080838360005b8381101561075757808201518382015260200161073f565b5050505090500192505050600060405180830381600087803b151561077b57600080fd5b6102c65a03f1151561078c57600080fd5b50829150505160008054600160a060020a03169063f23a8aa69033906040516040015260405160e060020a63ffffffff8416028152600160a060020a0390911660048201526024016040805180830381600087803b15156107ec57600080fd5b6102c65a03f115156107fd57600080fd5b50505060405160408181019052511461081257fe5b602081015160008054600160a060020a03169063f23a8aa69033906040516040015260405160e060020a63ffffffff8416028152600160a060020a0390911660048201526024016040805180830381600087803b15156105b457600080fd5b60a06040519081016040526005815b60008152602001906001900390816108805790505090565b60408051908101604052600081526001602082016108805600a165627a7a72305820cd767aca5bfde8d08c56312a25f6ae77a2c15c4231ec16a1d5c3aff102600b470029",
  "linkReferences": {},
  "deployedLinkReferences": {}
}