{
  "_format": "hh-sol-artifact-1",
  "contractName": "PXLProperty_PixelPropertyAccess_Replacement",
  "sourceName": "contracts/PXLPropertyUnitTests.sol",
  "abi": [
    {
      "constant": false,
      "inputs": [],
      "name": "modifyPXLPropertyState",
      "outputs": [
        {
          "name": "",
          "type": "bool"
        }
      ],
      "payable": false,
      "stateMutability": "nonpayable",
      "type": "function"
    },
    {
      "inputs": [
        {
          "name": "pxlPropertyAddress",
          "type": "address"
        }
      ],
      "payable": false,
      "stateMutability": "nonpayable",
      "type": "constructor"
    }
  ],
  "bytecode": "0x6060604052341561000f57600080fd5b60405160208061044f8339810160405280805160008054600160a060020a03909216600160a060020a031990921691909117905550506103fb806100546000396000f3006060604052600436106100275763ffffffff60e060020a60003504166324ce48c7811461002c575b600080fd5b341561003757600080fd5b61003f610053565b604051901515815260200160405180910390f35b600080548190600160a060020a03166326728b14306103e860405160e060020a63ffffffff8516028152600160a060020a0390921660048301526024820152604401600060405180830381600087803b15156100ae57600080fd5b6102c65a03f115156100bf57600080fd5b5050600054600160a060020a0316905063f6f8ca07306101f460405160e060020a63ffffffff8516028152600160a060020a0390921660048301526024820152604401600060405180830381600087803b151561011b57600080fd5b6102c65a03f1151561012c57600080fd5b505050600090505b60198110156102ee57600054600160a060020a0316634b1ec20c600a600160405160e060020a63ffffffff851602815261ffff909216600483015215156024820152604401600060405180830381600087803b151561019257600080fd5b6102c65a03f115156101a357600080fd5b5050600054600160a060020a0316905063411b65ef600a4260405160e060020a63ffffffff851602815261ffff90921660048301526024820152604401600060405180830381600087803b15156101f957600080fd5b6102c65a03f1151561020a57600080fd5b5050600054600160a060020a031690506317e0aeb8600a42840160405160e060020a63ffffffff851602815261ffff90921660048301526024820152604401600060405180830381600087803b151561026257600080fd5b6102c65a03f1151561027357600080fd5b5050600054600160a060020a0316905063c19358bb600a3360405160e060020a63ffffffff851602815261ffff9092166004830152600160a060020a03166024820152604401600060405180830381600087803b15156102d257600080fd5b6102c65a03f115156102e357600080fd5b505050600101610134565b600054600160a060020a03166326728b14336103e860405160e060020a63ffffffff8516028152600160a060020a0390921660048301526024820152604401600060405180830381600087803b151561034657600080fd5b6102c65a03f1151561035757600080fd5b5050600054600160a060020a0316905063f6f8ca07336101f460405160e060020a63ffffffff8516028152600160a060020a0390921660048301526024820152604401600060405180830381600087803b15156103b357600080fd5b6102c65a03f115156103c457600080fd5b5050506001915050905600a165627a7a72305820eeda23f673bd121e6c582263838c6c0b3099c6be88c6da76ed39d378e33d0c2b0029",
  "linkReferences": {},
  "deployedLinkReferences": {}
}