{
  "contractName": "VirtualRealEstate",
  "abi": [
    {
      "constant": true,
      "inputs": [
        {
          "name": "propertyID",
          "type": "uint16"
        }
      ],
      "name": "getPropertyData",
      "outputs": [
        {
          "name": "",
          "type": "address"
        },
        {
          "name": "",
          "type": "uint256"
        },
        {
          "name": "",
          "type": "uint256"
        },
        {
          "name": "",
          "type": "uint256"
        },
        {
          "name": "",
          "type": "bool"
        },
        {
          "name": "",
          "type": "uint256"
        },
        {
          "name": "",
          "type": "uint32"
        }
      ],
      "payable": false,
      "stateMutability": "view",
      "type": "function"
    },
    {
      "constant": false,
      "inputs": [
        {
          "name": "propertyID",
          "type": "uint16"
        }
      ],
      "name": "buyPropertyInETH",
      "outputs": [
        {
          "name": "",
          "type": "bool"
        }
      ],
      "payable": true,
      "stateMutability": "payable",
      "type": "function"
    },
    {
      "constant": false,
      "inputs": [
        {
          "name": "propertyID",
          "type": "uint16"
        },
        {
          "name": "row",
          "type": "uint8"
        },
        {
          "name": "newColorData",
          "type": "uint256"
        },
        {
          "name": "PXLToSpend",
          "type": "uint256"
        }
      ],
      "name": "setRowColors",
      "outputs": [
        {
          "name": "",
          "type": "bool"
        }
      ],
      "payable": false,
      "stateMutability": "nonpayable",
      "type": "function"
    },
    {
      "constant": true,
      "inputs": [
        {
          "name": "propertyID",
          "type": "uint16"
        }
      ],
      "name": "getProjectedPayout",
      "outputs": [
        {
          "name": "",
          "type": "uint256"
        }
      ],
      "payable": false,
      "stateMutability": "view",
      "type": "function"
    },
    {
      "constant": false,
      "inputs": [
        {
          "name": "propertyID",
          "type": "uint16"
        },
        {
          "name": "newOwner",
          "type": "address"
        }
      ],
      "name": "transferProperty",
      "outputs": [
        {
          "name": "",
          "type": "bool"
        }
      ],
      "payable": false,
      "stateMutability": "nonpayable",
      "type": "function"
    },
    {
      "constant": false,
      "inputs": [
        {
          "name": "propertyID",
          "type": "uint16"
        }
      ],
      "name": "tryForcePublic",
      "outputs": [],
      "payable": false,
      "stateMutability": "nonpayable",
      "type": "function"
    },
    {
      "constant": false,
      "inputs": [
        {
          "name": "amount",
          "type": "uint256"
        }
      ],
      "name": "withdraw",
      "outputs": [],
      "payable": false,
      "stateMutability": "nonpayable",
      "type": "function"
    },
    {
      "constant": false,
      "inputs": [
        {
          "name": "propertyID",
          "type": "uint16"
        },
        {
          "name": "PXLValue",
          "type": "uint256"
        }
      ],
      "name": "buyPropertyInPXL",
      "outputs": [],
      "payable": false,
      "stateMutability": "nonpayable",
      "type": "function"
    },
    {
      "constant": false,
      "inputs": [
        {
          "name": "propertyID",
          "type": "uint16"
        },
        {
          "name": "newColors",
          "type": "uint256[5]"
        },
        {
          "name": "PXLToSpend",
          "type": "uint256"
        }
      ],
      "name": "setColors",
      "outputs": [
        {
          "name": "",
          "type": "bool"
        }
      ],
      "payable": false,
      "stateMutability": "nonpayable",
      "type": "function"
    },
    {
      "constant": false,
      "inputs": [
        {
          "name": "propertyIDs",
          "type": "uint16[8]"
        },
        {
          "name": "newColors",
          "type": "uint256[40]"
        },
        {
          "name": "PXLToSpendEach",
          "type": "uint256"
        }
      ],
      "name": "setColorsX8",
      "outputs": [
        {
          "name": "",
          "type": "bool[8]"
        }
      ],
      "payable": false,
      "stateMutability": "nonpayable",
      "type": "function"
    },
    {
      "constant": false,
      "inputs": [
        {
          "name": "pxlPropertyContract",
          "type": "address"
        }
      ],
      "name": "setPXLPropertyContract",
      "outputs": [],
      "payable": false,
      "stateMutability": "nonpayable",
      "type": "function"
    },
    {
      "constant": true,
      "inputs": [
        {
          "name": "propertyIsInPrivateMode",
          "type": "bool"
        },
        {
          "name": "propertyLastUpdate",
          "type": "uint256"
        },
        {
          "name": "propertyEarnUntil",
          "type": "uint256"
        }
      ],
      "name": "getProjectedPayout",
      "outputs": [
        {
          "name": "",
          "type": "uint256"
        }
      ],
      "payable": false,
      "stateMutability": "view",
      "type": "function"
    },
    {
      "constant": false,
      "inputs": [],
      "name": "withdrawAll",
      "outputs": [],
      "payable": false,
      "stateMutability": "nonpayable",
      "type": "function"
    },
    {
      "constant": false,
      "inputs": [
        {
          "name": "propertyIDs",
          "type": "uint16[4]"
        },
        {
          "name": "newColors",
          "type": "uint256[20]"
        },
        {
          "name": "PXLToSpendEach",
          "type": "uint256"
        }
      ],
      "name": "setColorsX4",
      "outputs": [
        {
          "name": "",
          "type": "bool[4]"
        }
      ],
      "payable": false,
      "stateMutability": "nonpayable",
      "type": "function"
    },
    {
      "constant": false,
      "inputs": [
        {
          "name": "propertyID",
          "type": "uint16"
        },
        {
          "name": "setPrivateMode",
          "type": "bool"
        },
        {
          "name": "numMinutesPrivate",
          "type": "uint32"
        }
      ],
      "name": "setPropertyMode",
      "outputs": [],
      "payable": false,
      "stateMutability": "nonpayable",
      "type": "function"
    },
    {
      "constant": true,
      "inputs": [],
      "name": "getSystemSalePrices",
      "outputs": [
        {
          "name": "",
          "type": "uint256"
        },
        {
          "name": "",
          "type": "uint256"
        }
      ],
      "payable": false,
      "stateMutability": "view",
      "type": "function"
    },
    {
      "constant": false,
      "inputs": [
        {
          "name": "text",
          "type": "uint256[2]"
        }
      ],
      "name": "setHoverText",
      "outputs": [],
      "payable": false,
      "stateMutability": "nonpayable",
      "type": "function"
    },
    {
      "constant": false,
      "inputs": [
        {
          "name": "propertyID",
          "type": "uint16"
        },
        {
          "name": "bidAmount",
          "type": "uint256"
        }
      ],
      "name": "makeBid",
      "outputs": [],
      "payable": false,
      "stateMutability": "nonpayable",
      "type": "function"
    },
    {
      "constant": false,
      "inputs": [
        {
          "name": "propertyID",
          "type": "uint16"
        },
        {
          "name": "price",
          "type": "uint256"
        }
      ],
      "name": "listForSale",
      "outputs": [
        {
          "name": "",
          "type": "bool"
        }
      ],
      "payable": false,
      "stateMutability": "nonpayable",
      "type": "function"
    },
    {
      "constant": true,
      "inputs": [
        {
          "name": "propertyID",
          "type": "uint16"
        }
      ],
      "name": "getForSalePrices",
      "outputs": [
        {
          "name": "",
          "type": "uint256"
        },
        {
          "name": "",
          "type": "uint256"
        }
      ],
      "payable": false,
      "stateMutability": "view",
      "type": "function"
    },
    {
      "constant": false,
      "inputs": [
        {
          "name": "propertyID",
          "type": "uint16"
        }
      ],
      "name": "delist",
      "outputs": [
        {
          "name": "",
          "type": "bool"
        }
      ],
      "payable": false,
      "stateMutability": "nonpayable",
      "type": "function"
    },
    {
      "constant": true,
      "inputs": [],
      "name": "isInGracePeriod",
      "outputs": [
        {
          "name": "",
          "type": "bool"
        }
      ],
      "payable": false,
      "stateMutability": "view",
      "type": "function"
    },
    {
      "constant": false,
      "inputs": [
        {
          "name": "website",
          "type": "uint256[2]"
        }
      ],
      "name": "setLink",
      "outputs": [],
      "payable": false,
      "stateMutability": "nonpayable",
      "type": "function"
    },
    {
      "constant": false,
      "inputs": [
        {
          "name": "newOwner",
          "type": "address"
        }
      ],
      "name": "changeOwners",
      "outputs": [],
      "payable": false,
      "stateMutability": "nonpayable",
      "type": "function"
    },
    {
      "constant": false,
      "inputs": [
        {
          "name": "propertyID",
          "type": "uint16"
        },
        {
          "name": "pxlValue",
          "type": "uint256"
        }
      ],
      "name": "buyProperty",
      "outputs": [
        {
          "name": "",
          "type": "bool"
        }
      ],
      "payable": true,
      "stateMutability": "payable",
      "type": "function"
    },
    {
      "constant": true,
      "inputs": [],
      "name": "getSaleInformation",
      "outputs": [
        {
          "name": "",
          "type": "uint8"
        },
        {
          "name": "",
          "type": "uint8"
        },
        {
          "name": "",
          "type": "uint16"
        },
        {
          "name": "",
          "type": "uint16"
        },
        {
          "name": "",
          "type": "uint16"
        },
        {
          "name": "",
          "type": "uint16"
        }
      ],
      "payable": false,
      "stateMutability": "view",
      "type": "function"
    },
    {
      "inputs": [],
      "payable": false,
      "stateMutability": "nonpayable",
      "type": "constructor"
    },
    {
      "anonymous": false,
      "inputs": [
        {
          "indexed": true,
          "name": "property",
          "type": "uint16"
        },
        {
          "indexed": false,
          "name": "colors",
          "type": "uint256[5]"
        },
        {
          "indexed": false,
          "name": "lastUpdate",
          "type": "uint256"
        },
        {
          "indexed": true,
          "name": "lastUpdaterPayee",
          "type": "address"
        },
        {
          "indexed": false,
          "name": "becomePublic",
          "type": "uint256"
        },
        {
          "indexed": true,
          "name": "rewardedCoins",
          "type": "uint256"
        }
      ],
      "name": "PropertyColorUpdate",
      "type": "event"
    },
    {
      "anonymous": false,
      "inputs": [
        {
          "indexed": true,
          "name": "property",
          "type": "uint16"
        },
        {
          "indexed": true,
          "name": "newOwner",
          "type": "address"
        },
        {
          "indexed": false,
          "name": "ethAmount",
          "type": "uint256"
        },
        {
          "indexed": false,
          "name": "PXLAmount",
          "type": "uint256"
        },
        {
          "indexed": false,
          "name": "timestamp",
          "type": "uint256"
        },
        {
          "indexed": true,
          "name": "oldOwner",
          "type": "address"
        }
      ],
      "name": "PropertyBought",
      "type": "event"
    },
    {
      "anonymous": false,
      "inputs": [
        {
          "indexed": true,
          "name": "user",
          "type": "address"
        },
        {
          "indexed": false,
          "name": "newHoverText",
          "type": "uint256[2]"
        }
      ],
      "name": "SetUserHoverText",
      "type": "event"
    },
    {
      "anonymous": false,
      "inputs": [
        {
          "indexed": true,
          "name": "user",
          "type": "address"
        },
        {
          "indexed": false,
          "name": "newLink",
          "type": "uint256[2]"
        }
      ],
      "name": "SetUserSetLink",
      "type": "event"
    },
    {
      "anonymous": false,
      "inputs": [
        {
          "indexed": true,
          "name": "property",
          "type": "uint16"
        },
        {
          "indexed": false,
          "name": "forSalePrice",
          "type": "uint256"
        }
      ],
      "name": "PropertySetForSale",
      "type": "event"
    },
    {
      "anonymous": false,
      "inputs": [
        {
          "indexed": true,
          "name": "property",
          "type": "uint16"
        }
      ],
      "name": "DelistProperty",
      "type": "event"
    },
    {
      "anonymous": false,
      "inputs": [
        {
          "indexed": true,
          "name": "property",
          "type": "uint16"
        }
      ],
      "name": "SetPropertyPublic",
      "type": "event"
    },
    {
      "anonymous": false,
      "inputs": [
        {
          "indexed": true,
          "name": "property",
          "type": "uint16"
        },
        {
          "indexed": false,
          "name": "numMinutesPrivate",
          "type": "uint32"
        },
        {
          "indexed": true,
          "name": "rewardedUser",
          "type": "address"
        },
        {
          "indexed": true,
          "name": "rewardedCoins",
          "type": "uint256"
        }
      ],
      "name": "SetPropertyPrivate",
      "type": "event"
    },
    {
      "anonymous": false,
      "inputs": [
        {
          "indexed": true,
          "name": "property",
          "type": "uint16"
        },
        {
          "indexed": false,
          "name": "bid",
          "type": "uint256"
        },
        {
          "indexed": false,
          "name": "timestamp",
          "type": "uint256"
        }
      ],
      "name": "Bid",
      "type": "event"
    }
  ],
  "bytecode": "0x60606040526000600455341561001457600080fd5b60008054600160a060020a03191633600160a060020a03161781556103e8600655664547258d1ec00060059081556007805468010000000000000000660100000000000061ff0019909216610a001760ff191690931767ffffffffffff0000191617604060020a61ffff0219169190911790556001805460a060020a60ff0219169055612c829081906100a790396000f30060606040526004361061013a5763ffffffff60e060020a60003504166309ddc583811461013f5780630ad50c02146101a85780631286d9e8146101cb5780631bb2921b146101f15780631db939681461021d5780631e7769de146102435780632e1a7d4d1461025f57806332a428821461027557806335b11b721461029257806351846028146102d55780636b1ac90014610376578063728516c214610395578063853828b6146103b35780639cfda697146103c6578063a72aa16314610444578063ab4c44871461046c578063acd9930b14610497578063ae813029146104d3578063b047f245146104f0578063b4f6aa561461050d578063ba08651814610527578063cf27d01614610541578063d56a455514610554578063d7963f9414610590578063e829945a146105af578063f1ab36b4146105c1575b600080fd5b341561014a57600080fd5b61015961ffff60043516610617565b604051600160a060020a039097168752602087019590955260408087019490945260608601929092521515608085015260a084015263ffffffff90911660c083015260e0909101905180910390f35b6101b761ffff600435166106fd565b604051901515815260200160405180910390f35b34156101d657600080fd5b6101b761ffff6004351660ff60243516604435606435610880565b34156101fc57600080fd5b61020b61ffff60043516610aa9565b60405190815260200160405180910390f35b341561022857600080fd5b6101b761ffff60043516600160a060020a0360243516610b46565b341561024e57600080fd5b61025d61ffff60043516610c6c565b005b341561026a57600080fd5b61025d600435610d76565b341561028057600080fd5b61025d61ffff60043516602435610dda565b341561029d57600080fd5b6101b76004803561ffff169060c46024600560a06040519081016040529190828260a0808284375093955050923592506110a2915050565b34156102e057600080fd5b61033d60046101048160086101006040519081016040529190828261010080828437820191505050505091908061050001906028806020026040519081016040529190828261050080828437509395505092359250611311915050565b604051808261010080838360005b8381101561036357808201518382015260200161034b565b5050505090500191505060405180910390f35b341561038157600080fd5b61025d600160a060020a0360043516611488565b34156103a057600080fd5b61020b6004351515602435604435611588565b34156103be57600080fd5b61025d6115cc565b34156103d157600080fd5b61042a600460848180608060405190810160405291908282608080828437820191505050505091908061028001906014806020026040519081016040529190828261028080828437509395505092359250611627915050565b60405180826080808383600081518382015260200161034b565b341561044f57600080fd5b61025d61ffff60043516602435151563ffffffff60443516611771565b341561047757600080fd5b61047f611c23565b60405191825260208201526040908101905180910390f35b34156104a257600080fd5b61025d6004604481600260408051908101604052809291908260026020028082843750939550611c2d945050505050565b34156104de57600080fd5b61025d61ffff60043516602435611d26565b34156104fb57600080fd5b6101b761ffff60043516602435611e7a565b341561051857600080fd5b61047f61ffff60043516611fcc565b341561053257600080fd5b6101b761ffff600435166120ef565b341561054c57600080fd5b6101b761222e565b341561055f57600080fd5b61025d6004604481600260408051908101604052809291908260026020028082843750939550612237945050505050565b341561059b57600080fd5b61025d600160a060020a0360043516612310565b6101b761ffff6004351660243561235a565b34156105cc57600080fd5b6105d461270d565b60405160ff968716815294909516602085015261ffff928316604080860191909152918316606085015282166080840152921660a082015260c001905180910390f35b6000806000806000806000876127108161ffff1610156106f157600154600554600654600160a060020a039092169163b7b1e3cc918c91600060405160e0015260405160e060020a63ffffffff861602815261ffff90931660048401526024830191909152604482015260640160e060405180830381600087803b151561069d57600080fd5b6102c65a03f115156106ae57600080fd5b505050604051805190602001805190602001805190602001805190602001805190602001805190602001805190508060ff16905097509750975097509750975097505b50919395979092949650565b6000816127108161ffff16101561087a57600154600160a060020a0316632ccaa3e98460006040516020015260405160e060020a63ffffffff841602815261ffff9091166004820152602401602060405180830381600087803b151561076257600080fd5b6102c65a03f1151561077357600080fd5b5050506040518051600160a060020a031615905061079057600080fd5b60055434101561079f57600080fd5b60048054340190556007805461ffff6201000080830482166064018216810263ffff00001990931692909217928390556103e89190920490911610610865576007805467ffff00000000000019811666010000000000009182900461ffff908116600101811683029190911792839055600554600a9392909204169060090281151561082757fe5b0481151561083157fe5b600580549290910490910190556007805463ffff0000198116620100009182900461ffff9081166103e71901169091021790555b6108758333346000806000612782565b600191505b50919050565b600080600080876127108161ffff161015610a9d57600a60ff8916106108a557600080fd5b6108ae89610aa9565b93506108ba898761288a565b15610a9857600154600160a060020a0316633953ca8b8a8a8a60405160e060020a63ffffffff861602815261ffff909316600484015260ff90911660248301526044820152606401600060405180830381600087803b151561091b57600080fd5b6102c65a03f1151561092c57600080fd5b5050600154600160a060020a031690506363a6568f8a60006040516040015260405160e060020a63ffffffff841602815261ffff90911660048201526024016040805180830381600087803b151561098357600080fd5b6102c65a03f1151561099457600080fd5b505050604051805190602001805160015492955093508591600160a060020a03808716925061ffff8d16917fdf630a0a8e935495f00b4eb29dc220bc326d500d01e41767674b995bc1833b51911663e86994ea8e600060405160a0015260405160e060020a63ffffffff841602815261ffff909116600482015260240160a060405180830381600087803b1515610a2a57600080fd5b6102c65a03f11515610a3b57600080fd5b5050506040518060a0016040524287604051808460a080838360005b83811015610a6f578082015183820152602001610a57565b50505050905001838152602001828152602001935050505060405180910390a460019450610a9d565b600094505b50505050949350505050565b600154600090819081908190600160a060020a0316631f12da0686836040516060015260405160e060020a63ffffffff841602815261ffff9091166004820152602401606060405180830381600087803b1515610b0557600080fd5b6102c65a03f11515610b1657600080fd5b50505060405180519060200180519060200180519050925092509250610b3d838383611588565b95945050505050565b6000826127108161ffff161015610c6557600154600160a060020a033381169116632ccaa3e98660006040516020015260405160e060020a63ffffffff841602815261ffff9091166004820152602401602060405180830381600087803b1515610baf57600080fd5b6102c65a03f11515610bc057600080fd5b50505060405180519050600160a060020a0316141515610bdf57600080fd5b600154610c6090859085906000908190600160a060020a03166398864aaf85836040516020015260405160e060020a63ffffffff841602815261ffff9091166004820152602401602060405180830381600087803b1515610c3f57600080fd5b6102c65a03f11515610c5057600080fd5b5050506040518051905033612782565b600191505b5092915050565b600080826127108161ffff161015610d7057600154600160a060020a031663ab383a6b8560006040516040015260405160e060020a63ffffffff841602815261ffff90911660048201526024016040805180830381600087803b1515610cd157600080fd5b6102c65a03f11515610ce257600080fd5b5050506040518051906020018051905092509250828015610d0257504282105b15610d7057600154600160a060020a0316634b1ec20c85600060405160e060020a63ffffffff851602815261ffff909216600483015215156024820152604401600060405180830381600087803b1515610d5b57600080fd5b6102c65a03f11515610d6c57600080fd5b5050505b50505050565b60005433600160a060020a03908116911614610d9157600080fd5b6004548111610dd757600054600160a060020a031681156108fc0282604051600060405180830381858888f193505050501515610dcd57600080fd5b6004805482900390555b50565b600080600080856127108161ffff161015610d6c57600154600160a060020a031663cf09e8208860006040516040015260405160e060020a63ffffffff841602815261ffff90911660048201526024016040805180830381600087803b1515610e4257600080fd5b6102c65a03f11515610e5357600080fd5b505050604051805190602001805190509450945084925084600160a060020a031660001415610fde57600154600054600654600160a060020a03928316926345ede900928b9291169060405160e060020a63ffffffff861602815261ffff9093166004840152600160a060020a0390911660248301526044820152606401600060405180830381600087803b1515610eea57600080fd5b6102c65a03f11515610efb57600080fd5b50506000546006546007805461ffff64010000000080830482166064018216810265ffff00000000199093169290921792839055600160a060020a0390941699509197506103e8919004909116109050610fde576007805469ffff0000000000000000198116680100000000000000009182900461ffff908116600101811683029190911792839055600654600a93929092041690600902811515610f9c57fe5b04811515610fa657fe5b600680549290910490910190556007805465ffff000000001981166401000000009182900461ffff9081166103e71901169091021790555b85841115610feb57600080fd5b600154600054606460628702049350600160a060020a039182169163121c2b3591339188918a9188911681840360405160e060020a63ffffffff8916028152600160a060020a039687166004820152602481019590955292851660448501526064840191909152909216608482015260a481019190915260c401600060405180830381600087803b151561107e57600080fd5b6102c65a03f1151561108f57600080fd5b505050610d6c8733600087600088612782565b600080600080866127108161ffff161015611306576110c088610aa9565b93506110cc888761288a565b1561130157600154600160a060020a031663eb39bc90898960405160e060020a63ffffffff851602815261ffff831660048201908152906024018260a080838360005b8381101561112757808201518382015260200161110f565b5050505090500192505050600060405180830381600087803b151561114b57600080fd5b6102c65a03f1151561115c57600080fd5b5050600154600160a060020a031690506363a6568f8960006040516040015260405160e060020a63ffffffff841602815261ffff90911660048201526024016040805180830381600087803b15156111b357600080fd5b6102c65a03f115156111c457600080fd5b50505060405180519060200180519050925092508383600160a060020a03168961ffff167fdf630a0a8e935495f00b4eb29dc220bc326d500d01e41767674b995bc1833b518a4287604051808460a080838360005b83811015611231578082015183820152602001611219565b50505050905001838152602001828152602001935050505060405180910390a461ffff881660009081526002602052604090205460ff1615156112f857600154600160a060020a03166326728b1433601960405160e060020a63ffffffff8516028152600160a060020a0390921660048301526024820152604401600060405180830381600087803b15156112c557600080fd5b6102c65a03f115156112d657600080fd5b50505061ffff88166000908152600260205260409020805460ff191660011790555b60019450611306565b600094505b505050509392505050565b611319612c13565b6000805b600881101561142c5761271086826008811061133557fe5b602002015161ffff161061134857600080fd5b6113f486826008811061135757fe5b602002015160a06040519081016040528088600586026028811061137757fe5b6020020151815260200188600160058702016028811061139357fe5b602002015181526020018860026005870201602881106113af57fe5b602002015181526020018860036005870201602881106113cb57fe5b602002015181526020018860046005870201602881106113e757fe5b60200201519052866110a2565b82826008811061140057fe5b602091828204019190066101000a81548160ff021916908315150217905550808060010191505061131d565b81600861010060405190810160405291906101008301826000855b825461010083900a900460ff161515815260206001928301818104948501949093039092029101808411611447579050505050505092505b50509392505050565b6000805481908190819033600160a060020a039081169116146114aa57600080fd5b6001805473ffffffffffffffffffffffffffffffffffffffff1916600160a060020a038716179081905574010000000000000000000000000000000000000000900460ff16151561158157602d935060009250600091505b600a8261ffff161015611542575060008054606484028584010191611537918391600160a060020a0390911690808080612782565b816001019150611502565b6001805474ff00000000000000000000000000000000000000001916740100000000000000000000000000000000000000001790556203f48042016003555b5050505050565b60008060008515801561159a57508415155b156115c0578342106115ac57836115ae565b425b9150603c85830304925082905061147f565b50600095945050505050565b60005433600160a060020a039081169116146115e757600080fd5b600054600454600160a060020a039091169080156108fc0290604051600060405180830381858888f19350505050151561162057600080fd5b6000600455565b61162f612c3c565b6000805b60048110156117355761271086826004811061164b57fe5b602002015161ffff161061165e57600080fd5b6116fd86826004811061166d57fe5b602002015160a06040519081016040528088600586026014811061168d57fe5b602002015181526020018860016005870201601481106116a957fe5b602002015181526020018860026005870201601481106116c557fe5b602002015181526020018860036005870201601481106116e157fe5b602002015181526020018860046005870201601481106113e757fe5b82826004811061170957fe5b602091828204019190066101000a81548160ff0219169083151502179055508080600101915050611633565b8160046080604051908101604052825460ff1615158152919060808301826001602086018084116114475750949b9a5050505050505050505050565b6000806000806000806000806000808c6127108161ffff161015611c1357600154600160a060020a03166369a4c4e78f6000604051610100015260405160e060020a63ffffffff841602815261ffff909116600482015260240161010060405180830381600087803b15156117e557600080fd5b6102c65a03f115156117f657600080fd5b505050604051805190602001805190602001805190602001805190602001805190602001805190602001805190602001805190509a509a509a509a509a509a509a509a5088600160a060020a031633600160a060020a031614151561185a57600080fd5b60009250600091508c15611a895789806118745750428511155b80611890575033600160a060020a031688600160a060020a0316145b151561189b57600080fd5b600063ffffffff8d16116118ae57600080fd5b60015463ffffffff8d1690600160a060020a03166370a082313360006040516020015260405160e060020a63ffffffff8416028152600160a060020a039091166004820152602401602060405180830381600087803b151561190f57600080fd5b6102c65a03f1151561192057600080fd5b505050604051805190501015151561193757600080fd5b8b63ffffffff16603c0285421061194e5742611950565b855b01925061195e8a8786611588565b91506000821180156119785750600160a060020a03881615155b15611a1557600154600160a060020a031663121c2b35338e8b86838160405163ffffffff88811660e060020a028252600160a060020a03978816600483015295909516602486015292851660448501526064840191909152909216608482015260a481019190915260c401600060405180830381600087803b15156119fc57600080fd5b6102c65a03f11515611a0d57600080fd5b505050611a84565b600154600160a060020a031663f6f8ca07338e60405163ffffffff84811660e060020a028252600160a060020a0393909316600482015291166024820152604401600060405180830381600087803b1515611a6f57600080fd5b6102c65a03f11515611a8057600080fd5b5050505b611b0e565b898015611a9557504285115b15611b0e57600154600160a060020a03166326728b1433600019603c428a03040160405160e060020a63ffffffff8516028152600160a060020a0390921660048301526024820152604401600060405180830381600087803b1515611af957600080fd5b6102c65a03f11515611b0a57600080fd5b5050505b600154600160a060020a031663886b148d8f8f6000808860405160e060020a63ffffffff881602815261ffff9095166004860152921515602485015260448401919091526064830152608482015260a401600060405180830381600087803b1515611b7857600080fd5b6102c65a03f11515611b8957600080fd5b5050508c15611be1578188600160a060020a03168f61ffff167fa21d884986f2c87cfb81054448f66071c9363735665db28d236c882a5c0917968f60405163ffffffff909116815260200160405180910390a4611c13565b8d61ffff167f3f7bf071636ed8429b752f79e5cd881beb27062a4d0092050a0fc633850d387d60405160405180910390a25b5050505050505050505050505050565b6005546006549091565b600154600160a060020a031663606bc9a5338360405160e060020a63ffffffff8516028152600160a060020a038316600482019081529060240182604080838360005b83811015611c88578082015183820152602001611c70565b5050505090500192505050600060405180830381600087803b1515611cac57600080fd5b6102c65a03f11515611cbd57600080fd5b50505033600160a060020a03167fb05ccb51f2408b99be7026712c574396fced9c3e0480bf7b8f8874d8c830b7cc826040518082604080838360005b83811015611d11578082015183820152602001611cf9565b5050505090500191505060405180910390a250565b816127108161ffff161015611e755760008211611d4257600080fd5b6001805490830190600160a060020a03166370a082313360006040516020015260405160e060020a63ffffffff8416028152600160a060020a039091166004820152602401602060405180830381600087803b1515611da057600080fd5b6102c65a03f11515611db157600080fd5b5050506040518051905010151515611dc857600080fd5b8261ffff167f606e2d57e3221093069398002086bf333ae29b8033fc68ddf70c7a4516b530f8834260405191825260208201526040908101905180910390a260018054600160a060020a03169063f6f8ca0790339060405160e060020a63ffffffff8516028152600160a060020a0390921660048301526024820152604401600060405180830381600087803b1515611e6057600080fd5b6102c65a03f11515611e7157600080fd5b5050505b505050565b6000826127108161ffff161015610c6557821515611e9757600080fd5b600154600160a060020a0316632ccaa3e98560006040516020015260405160e060020a63ffffffff841602815261ffff9091166004820152602401602060405180830381600087803b1515611eeb57600080fd5b6102c65a03f11515611efc57600080fd5b50505060405180519050600160a060020a031633600160a060020a0316141515611f2557600080fd5b600154600160a060020a0316636d87b65c858560405160e060020a63ffffffff851602815261ffff90921660048301526024820152604401600060405180830381600087803b1515611f7657600080fd5b6102c65a03f11515611f8757600080fd5b5050508361ffff167ffbf70f26ac04d08c24acb352205513f53182e26fe61c050a6dd445a584cd14518460405190815260200160405180910390a25060019392505050565b600080826127108161ffff1610156120e957600154600160a060020a0316632ccaa3e98560006040516020015260405160e060020a63ffffffff841602815261ffff9091166004820152602401602060405180830381600087803b151561203257600080fd5b6102c65a03f1151561204357600080fd5b5050506040518051600160a060020a03161515905061206d57612064611c23565b925092506120e9565b600154600090600160a060020a0316631bbc795286836040516020015260405160e060020a63ffffffff841602815261ffff9091166004820152602401602060405180830381600087803b15156120c357600080fd5b6102c65a03f115156120d457600080fd5b50505060405180519194509092506120e99050565b50915091565b6000816127108161ffff16101561087a57600154600160a060020a0316632ccaa3e98460006040516020015260405160e060020a63ffffffff841602815261ffff9091166004820152602401602060405180830381600087803b151561215457600080fd5b6102c65a03f1151561216557600080fd5b50505060405180519050600160a060020a031633600160a060020a031614151561218e57600080fd5b600154600160a060020a0316636d87b65c84600060405160e060020a63ffffffff851602815261ffff90921660048301526024820152604401600060405180830381600087803b15156121e057600080fd5b6102c65a03f115156121f157600080fd5b5050508261ffff167f01a14d3ac14361bc1087c805becdb2946b166a265e22798f7011f3a9e8b5fc6c60405160405180910390a250600192915050565b60035442111590565b600154600160a060020a0316636fcdcb3e338360405160e060020a63ffffffff8516028152600160a060020a038316600482019081529060240182604080838360005b8381101561229257808201518382015260200161227a565b5050505090500192505050600060405180830381600087803b15156122b657600080fd5b6102c65a03f115156122c757600080fd5b50505033600160a060020a03167f4d267d545ed24f4a32ae8dafe3dd6b7015cf92b46e36306b74986fc9288964a782604051808260408083836000815183820152602001611cf9565b60005433600160a060020a0390811691161461232b57600080fd5b6000805473ffffffffffffffffffffffffffffffffffffffff1916600160a060020a0392909216919091179055565b6000806000846127108161ffff16101561270457600154600160a060020a0316632ccaa3e98760006040516020015260405160e060020a63ffffffff841602815261ffff9091166004820152602401602060405180830381600087803b15156123c257600080fd5b6102c65a03f115156123d357600080fd5b5050506040518051600160a060020a03161590506123f057600080fd5b6001548590600160a060020a03166370a082313360006040516020015260405160e060020a63ffffffff8416028152600160a060020a039091166004820152602401602060405180830381600087803b151561244b57600080fd5b6102c65a03f1151561245c57600080fd5b505050604051805190501015151561247357600080fd5b84151561247f57600080fd5b60065485111561248e57600080fd5b84600654039250826006546005548115156124a557fe5b0402915034829010156124b757600080fd5b600154600054600160a060020a0391821691632a3967349133918991168160405160e060020a63ffffffff8716028152600160a060020a0394851660048201526024810193909352921660448201526064810191909152608401600060405180830381600087803b151561252a57600080fd5b6102c65a03f1151561253b57600080fd5b5050506006548560640281151561254e57fe5b6007805461ffff640100000000808304821695909404949094018416830265ffff000000001990911617908190556103e891900490911610612619576007805469ffff0000000000000000198116680100000000000000009182900461ffff908116600101811683029190911792839055600654600a939290920416906009028115156125d757fe5b048115156125e157fe5b600680549290910490910190556007805465ffff000000001981166401000000009182900461ffff9081166103e71901169091021790555b60048054340190556006546064840281151561263157fe5b6007805461ffff62010000808304821695909404949094018416830263ffff00001990911617908190556103e8919004909116106126f0576007805467ffff00000000000019811666010000000000009182900461ffff908116600101811683029190911792839055600554600a939290920416906009028115156126b257fe5b048115156126bc57fe5b600580549290910490910190556007805463ffff0000198116620100009182900461ffff9081166103e71901169091021790555b6126ff86333488600080612782565b600193505b50505092915050565b600080548190819081908190819033600160a060020a0390811691161461273357600080fd5b505060075460ff8082169550610100820416935061ffff620100008204811693506401000000008204811692506601000000000000820481169168010000000000000000900416909192939495565b600160a060020a038516151561279757600080fd5b600154600160a060020a031663b9e58ab087876000808760405160e060020a63ffffffff881602815261ffff9095166004860152600160a060020a03909316602485015260448401919091521515606483015260ff16608482015260a401600060405180830381600087803b151561280e57600080fd5b6102c65a03f1151561281f57600080fd5b50505080600160a060020a031685600160a060020a03168761ffff167f75d46023a8160c0896514b1afdbbaf5d7b2175bb0ef87ee9c94df9e7455f962787874260405180848152602001838152602001828152602001935050505060405180910390a4505050505050565b6000806000806000806000806000806000600160009054906101000a9004600160a060020a0316600160a060020a03166369a4c4e78e6000604051610100015260405160e060020a63ffffffff841602815261ffff909116600482015260240161010060405180830381600087803b151561290457600080fd5b6102c65a03f1151561291557600080fd5b50505060405180519060200180519060200180519060200180519060200180519060200180519060200180519060200180519050995099509950995099509950995099508880156129665750428411155b156129d857600154600160a060020a0316634b1ec20c8e600060405160e060020a63ffffffff851602815261ffff909216600483015215156024820152604401600060405180830381600087803b15156129bf57600080fd5b6102c65a03f115156129d057600080fd5b505050600098505b8815612a145787600160a060020a031633600160a060020a03161415156129fe57600080fd5b600260ff8b161415612a0f57600080fd5b612b88565b4284111580612a34575033600160a060020a031687600160a060020a0316145b15612b7f578b6001019150612a4761222e565b8015612a53575060028c105b15612a5d57600391505b612a68898685611588565b600154909150600160a060020a031663121c2b35338e8a858d8160405160e060020a63ffffffff8916028152600160a060020a039687166004820152602481019590955292851660448501526064840191909152909216608482015260a481019190915260c401600060405180830381600087803b1515612ae857600080fd5b6102c65a03f11515612af957600080fd5b5050600154600160a060020a0316905063c575200d8e426002603c87020481019061012c87020160405160e060020a63ffffffff861602815261ffff909316600484015260248301919091526044820152606401600060405180830381600087803b1515612b6657600080fd5b6102c65a03f11515612b7757600080fd5b505050612b88565b60009a50612c03565b600154600160a060020a03166315f590338e334260405160e060020a63ffffffff861602815261ffff9093166004840152600160a060020a0390911660248301526044820152606401600060405180830381600087803b1515612bea57600080fd5b6102c65a03f11515612bfb57600080fd5b50505060019a505b5050505050505050505092915050565b6101006040519081016040526008815b600081526000199091019060200181612c235790505090565b608060405190810160405260008152600360208201612c235600a165627a7a72305820a8231bcfb90a2178b3b214166cedbe95997673a381b033daca9d3bf43ad6317c0029",
  "source": "pragma solidity ^0.4.2;\nimport \"./PXLProperty.sol\";\n\n// PixelProperty\ncontract VirtualRealEstate {\n    /* ### Variables ### */\n    // Contract owner\n    address owner;\n    PXLProperty pxlProperty;\n    \n    bool initialPropertiesReserved;\n    \n    mapping (uint16 => bool) hasBeenSet;\n    \n    // The amount in % for which a user is paid\n    uint8 constant USER_BUY_CUT_PERCENT = 98;\n    // Maximum amount of generated PXL a property can give away per minute\n    uint8 constant PROPERTY_GENERATES_PER_MINUTE = 1;\n    // The point in time when the initial grace period is over, and users get the default values based on coins burned\n    uint256 GRACE_PERIOD_END_TIMESTAMP;\n    // The amount of time required for a Property to generate tokens for payouts\n    uint256 constant PROPERTY_GENERATION_PAYOUT_INTERVAL = (1 minutes); //Generation amount\n    \n    uint256 ownerEth = 0; // Amount of ETH the contract owner is entitled to withdraw (only Root account can do withdraws)\n    \n    // The current system prices of ETH and PXL, for which unsold Properties are listed for sale at\n    uint256 systemSalePriceETH;\n    uint256 systemSalePricePXL;\n    uint8 systemPixelIncreasePercent;\n    uint8 systemPriceIncreaseStep;\n    uint16 systemETHStepTally;\n    uint16 systemPXLStepTally;\n    uint16 systemETHStepCount;\n    uint16 systemPXLStepCount;\n\n    /* ### Events ### */\n    event PropertyColorUpdate(uint16 indexed property, uint256[5] colors, uint256 lastUpdate, address indexed lastUpdaterPayee, uint256 becomePublic, uint256 indexed rewardedCoins);\n    event PropertyBought(uint16 indexed property, address indexed newOwner, uint256 ethAmount, uint256 PXLAmount, uint256 timestamp, address indexed oldOwner);\n    event SetUserHoverText(address indexed user, uint256[2] newHoverText);\n    event SetUserSetLink(address indexed user, uint256[2] newLink);\n    event PropertySetForSale(uint16 indexed property, uint256 forSalePrice);\n    event DelistProperty(uint16 indexed property);\n    event SetPropertyPublic(uint16 indexed property);\n    event SetPropertyPrivate(uint16 indexed property, uint32 numMinutesPrivate, address indexed rewardedUser, uint256 indexed rewardedCoins);\n    event Bid(uint16 indexed property, uint256 bid, uint256 timestamp);\n    \n    /* ### MODIFIERS ### */\n\n    // Only the contract owner can call these methods\n    modifier ownerOnly() {\n        require(owner == msg.sender);\n        _;\n    }\n    \n    // Can only be called on Properties referecing a valid PropertyID\n    modifier validPropertyID(uint16 propertyID) {\n        if (propertyID < 10000) {\n            _;\n        }\n    }\n    \n    /* ### PUBLICALLY INVOKABLE FUNCTIONS ### */\n    \n    /* CONSTRUCTOR */\n    function VirtualRealEstate() public {\n        owner = msg.sender; // Default the owner to be whichever Ethereum account created the contract\n        systemSalePricePXL = 1000; //Initial PXL system price\n        systemSalePriceETH = 19500000000000000; //Initial ETH system price\n        systemPriceIncreaseStep = 10;\n        systemPixelIncreasePercent = 5;\n        systemETHStepTally = 0;\n        systemPXLStepTally = 0;\n        systemETHStepCount = 1;\n        systemPXLStepCount = 1;\n        initialPropertiesReserved = false;\n    }\n    \n    function setPXLPropertyContract(address pxlPropertyContract) public ownerOnly() {\n        pxlProperty = PXLProperty(pxlPropertyContract);\n        if (!initialPropertiesReserved) {\n            uint16 xReserved = 45;\n            uint16 yReserved = 0;\n            for(uint16 x = 0; x < 10; ++x) {\n                uint16 propertyID = (yReserved) * 100 + (xReserved + x);\n                _transferProperty(propertyID, owner, 0, 0, 0, 0);\n            }\n            initialPropertiesReserved = true;\n            GRACE_PERIOD_END_TIMESTAMP = now + 3 days; // Extends the three \n        }\n    }\n\n    function getSaleInformation() public view ownerOnly() returns(uint8, uint8, uint16, uint16, uint16, uint16) {\n        return (systemPixelIncreasePercent, systemPriceIncreaseStep, systemETHStepTally, systemPXLStepTally, systemETHStepCount, systemPXLStepCount);\n    }\n    \n    /* USER FUNCTIONS */\n    \n    // Property owners can change their hoverText for when a user mouses over their Properties\n    function setHoverText(uint256[2] text) public {\n        pxlProperty.setOwnerHoverText(msg.sender, text);\n        SetUserHoverText(msg.sender, text);\n    }\n    \n    // Property owners can change the clickable link for when a user clicks on their Properties\n    function setLink(uint256[2] website) public {\n        pxlProperty.setOwnerLink(msg.sender, website);\n        SetUserSetLink(msg.sender, website);\n    }\n    \n    // If a Property is private which has expired, make it public\n    function tryForcePublic(uint16 propertyID) public validPropertyID(propertyID) { \n        var (isInPrivateMode, becomePublic) = pxlProperty.getPropertyPrivateModeBecomePublic(propertyID);\n        if (isInPrivateMode && becomePublic < now) {\n            pxlProperty.setPropertyPrivateMode(propertyID, false);\n        }\n    }\n    \n    // Update the 10x10 image data for a Property, triggering potential payouts if it succeeds\n    function setColors(uint16 propertyID, uint256[5] newColors, uint256 PXLToSpend) public validPropertyID(propertyID) returns(bool) {\n        uint256 projectedPayout = getProjectedPayout(propertyID);\n        if (_tryTriggerPayout(propertyID, PXLToSpend)) {\n            pxlProperty.setPropertyColors(propertyID, newColors);\n            var (lastUpdater, becomePublic) = pxlProperty.getPropertyLastUpdaterBecomePublic(propertyID);\n            PropertyColorUpdate(propertyID, newColors, now, lastUpdater, becomePublic, projectedPayout);\n            // The first user to set a Properties color ever is awarded extra PXL due to eating the extra GAS cost of creating the uint256[5]\n            if (!hasBeenSet[propertyID]) {\n                pxlProperty.rewardPXL(msg.sender, 25);\n                hasBeenSet[propertyID] = true;\n            }\n            return true;\n        }\n        return false;\n    }\n\n    //Wrapper to call setColors 4 times in one call. Reduces overhead, however still duplicate work everywhere to ensure\n    function setColorsX4(uint16[4] propertyIDs, uint256[20] newColors, uint256 PXLToSpendEach) public returns(bool[4]) {\n        bool[4] results;\n        for(uint256 i = 0; i < 4; i++) {\n            require(propertyIDs[i] < 10000);\n            results[i] = setColors(propertyIDs[i], [newColors[i * 5], newColors[i * 5 + 1], newColors[i * 5 + 2], newColors[i * 5 + 3], newColors[i * 5 + 4]], PXLToSpendEach);\n        }\n        return results;\n    }\n\n    //Wrapper to call setColors 8 times in one call. Reduces overhead, however still duplicate work everywhere to ensure\n    function setColorsX8(uint16[8] propertyIDs, uint256[40] newColors, uint256 PXLToSpendEach) public returns(bool[8]) {\n        bool[8] results;\n        for(uint256 i = 0; i < 8; i++) {\n            require(propertyIDs[i] < 10000);\n            results[i] = setColors(propertyIDs[i], [newColors[i * 5], newColors[i * 5 + 1], newColors[i * 5 + 2], newColors[i * 5 + 3], newColors[i * 5 + 4]], PXLToSpendEach);\n        }\n        return results;\n    }\n    \n    // Update a row of image data for a Property, triggering potential payouts if it succeeds\n    function setRowColors(uint16 propertyID, uint8 row, uint256 newColorData, uint256 PXLToSpend) public validPropertyID(propertyID) returns(bool) {\n        require(row < 10);\n        uint256 projectedPayout = getProjectedPayout(propertyID);\n        if (_tryTriggerPayout(propertyID, PXLToSpend)) {\n            pxlProperty.setPropertyRowColor(propertyID, row, newColorData);\n            var (lastUpdater, becomePublic) = pxlProperty.getPropertyLastUpdaterBecomePublic(propertyID);\n            PropertyColorUpdate(propertyID, pxlProperty.getPropertyColors(propertyID), now, lastUpdater, becomePublic, projectedPayout);\n            return true;\n        }\n        return false;\n    }\n    // Property owners can toggle their Properties between private mode and free-use mode\n    function setPropertyMode(uint16 propertyID, bool setPrivateMode, uint32 numMinutesPrivate) public validPropertyID(propertyID) {\n        var (propertyFlag, propertyIsInPrivateMode, propertyOwner, propertyLastUpdater, propertySalePrice, propertyLastUpdate, propertyBecomePublic, propertyEarnUntil) = pxlProperty.properties(propertyID);\n        \n        require(msg.sender == propertyOwner);\n        uint256 whenToBecomePublic = 0;\n        uint256 rewardedAmount = 0;\n        \n        if (setPrivateMode) {\n            //If inprivate, we can extend the duration, otherwise if becomePublic > now it means a free-use user locked it\n            require(propertyIsInPrivateMode || propertyBecomePublic <= now || propertyLastUpdater == msg.sender ); \n            require(numMinutesPrivate > 0);\n            require(pxlProperty.balanceOf(msg.sender) >= numMinutesPrivate);\n            // Determines when the Property becomes public, one payout interval per coin burned\n            whenToBecomePublic = (now < propertyBecomePublic ? propertyBecomePublic : now) + PROPERTY_GENERATION_PAYOUT_INTERVAL * numMinutesPrivate;\n\n            rewardedAmount = getProjectedPayout(propertyIsInPrivateMode, propertyLastUpdate, propertyEarnUntil);\n            if (rewardedAmount > 0 && propertyLastUpdater != 0) {\n                pxlProperty.burnPXLRewardPXLx2(msg.sender, numMinutesPrivate, propertyLastUpdater, rewardedAmount, msg.sender, rewardedAmount);\n            } else {\n                pxlProperty.burnPXL(msg.sender, numMinutesPrivate);\n            }\n\n        } else {\n            // If its in private mode and still has time left, reimburse them for N-1 minutes tokens back\n            if (propertyIsInPrivateMode && propertyBecomePublic > now) {\n                pxlProperty.rewardPXL(msg.sender, ((propertyBecomePublic - now) / PROPERTY_GENERATION_PAYOUT_INTERVAL) - 1);\n            }\n        }\n        \n        pxlProperty.setPropertyPrivateModeEarnUntilLastUpdateBecomePublic(propertyID, setPrivateMode, 0, 0, whenToBecomePublic);\n        \n        if (setPrivateMode) {\n            SetPropertyPrivate(propertyID, numMinutesPrivate, propertyLastUpdater, rewardedAmount);\n        } else {\n            SetPropertyPublic(propertyID);\n        }\n    }\n    // Transfer Property ownership between accounts. This has no cost, no cut and does not change flag status\n    function transferProperty(uint16 propertyID, address newOwner) public validPropertyID(propertyID) returns(bool) {\n        require(pxlProperty.getPropertyOwner(propertyID) == msg.sender);\n        _transferProperty(propertyID, newOwner, 0, 0, pxlProperty.getPropertyFlag(propertyID), msg.sender);\n        return true;\n    }\n    // Purchase a unowned system-Property in a combination of PXL and ETH\n    function buyProperty(uint16 propertyID, uint256 pxlValue) public validPropertyID(propertyID) payable returns(bool) {\n        //Must be the first purchase, otherwise do it with PXL from another user\n        require(pxlProperty.getPropertyOwner(propertyID) == 0);\n        // Must be able to afford the given PXL\n        require(pxlProperty.balanceOf(msg.sender) >= pxlValue);\n        require(pxlValue != 0);\n        \n        // Protect against underflow\n        require(pxlValue <= systemSalePricePXL);\n        uint256 pxlLeft = systemSalePricePXL - pxlValue;\n        uint256 ethLeft = systemSalePriceETH / systemSalePricePXL * pxlLeft;\n        \n        // Must have spent enough ETH to cover the ETH left after PXL price was subtracted\n        require(msg.value >= ethLeft);\n        \n        pxlProperty.burnPXLRewardPXL(msg.sender, pxlValue, owner, pxlValue);\n        \n        systemPXLStepTally += uint16(100 * pxlValue / systemSalePricePXL);\n        if (systemPXLStepTally >= 1000) {\n             systemPXLStepCount++;\n            systemSalePricePXL += systemSalePricePXL * 9 / systemPXLStepCount / 10;\n            systemPXLStepTally -= 1000;\n        }\n        \n        ownerEth += msg.value;\n\n        systemETHStepTally += uint16(100 * pxlLeft / systemSalePricePXL);\n        if (systemETHStepTally >= 1000) {\n            systemETHStepCount++;\n            systemSalePriceETH += systemSalePriceETH * 9 / systemETHStepCount / 10;\n            systemETHStepTally -= 1000;\n        }\n\n        _transferProperty(propertyID, msg.sender, msg.value, pxlValue, 0, 0);\n        \n        return true;\n    }\n    // Purchase a listed user-owner Property in PXL\n    function buyPropertyInPXL(uint16 propertyID, uint256 PXLValue) public validPropertyID(propertyID) {\n        // If Property is system-owned\n        var (propertyOwner, propertySalePrice) = pxlProperty.getPropertyOwnerSalePrice(propertyID);\n        address originalOwner = propertyOwner;\n        if (propertyOwner == 0) {\n            // Turn it into a user-owned at system price with contract owner as owner\n            pxlProperty.setPropertyOwnerSalePrice(propertyID, owner, systemSalePricePXL);\n            propertyOwner = owner;\n            propertySalePrice = systemSalePricePXL;\n            // Increase system PXL price\n            systemPXLStepTally += 100;\n            if (systemPXLStepTally >= 1000) {\n                systemPXLStepCount++;\n                systemSalePricePXL += systemSalePricePXL * 9 / systemPXLStepCount / 10;\n                systemPXLStepTally -= 1000;\n            }\n        }\n        require(propertySalePrice <= PXLValue);\n        uint256 amountTransfered = propertySalePrice * USER_BUY_CUT_PERCENT / 100;\n        pxlProperty.burnPXLRewardPXLx2(msg.sender, propertySalePrice, propertyOwner, amountTransfered, owner, (propertySalePrice - amountTransfered));        \n        _transferProperty(propertyID, msg.sender, 0, propertySalePrice, 0, originalOwner);\n    }\n\n    // Purchase a system-Property in pure ETH\n    function buyPropertyInETH(uint16 propertyID) public validPropertyID(propertyID) payable returns(bool) {\n        require(pxlProperty.getPropertyOwner(propertyID) == 0);\n        require(msg.value >= systemSalePriceETH);\n        \n        ownerEth += msg.value;\n        systemETHStepTally += 100;\n        if (systemETHStepTally >= 1000) {\n            systemETHStepCount++;\n            systemSalePriceETH += systemSalePriceETH * 9 / systemETHStepCount / 10;\n            systemETHStepTally -= 1000;\n        }\n        _transferProperty(propertyID, msg.sender, msg.value, 0, 0, 0);\n        return true;\n    }\n    \n    // Property owner lists their Property for sale at their preferred price\n    function listForSale(uint16 propertyID, uint256 price) public validPropertyID(propertyID) returns(bool) {\n        require(price != 0);\n        require(msg.sender == pxlProperty.getPropertyOwner(propertyID));\n        pxlProperty.setPropertySalePrice(propertyID, price);\n        PropertySetForSale(propertyID, price);\n        return true;\n    }\n    \n    // Property owner delists their Property from being for sale\n    function delist(uint16 propertyID) public validPropertyID(propertyID) returns(bool) {\n        require(msg.sender == pxlProperty.getPropertyOwner(propertyID));\n        pxlProperty.setPropertySalePrice(propertyID, 0);\n        DelistProperty(propertyID);\n        return true;\n    }\n\n    // Make a public bid and notify a Property owner of your bid. Burn 1 coin\n    function makeBid(uint16 propertyID, uint256 bidAmount) public validPropertyID(propertyID) {\n        require(bidAmount > 0);\n        require(pxlProperty.balanceOf(msg.sender) >= 1 + bidAmount);\n        Bid(propertyID, bidAmount, now);\n        pxlProperty.burnPXL(msg.sender, 1);\n    }\n    \n    /* CONTRACT OWNER FUNCTIONS */\n    \n    // Contract owner can withdraw up to ownerEth amount\n    function withdraw(uint256 amount) public ownerOnly() {\n        if (amount <= ownerEth) {\n            owner.transfer(amount);\n            ownerEth -= amount;\n        }\n    }\n    \n    // Contract owner can withdraw ownerEth amount\n    function withdrawAll() public ownerOnly() {\n        owner.transfer(ownerEth);\n        ownerEth = 0;\n    }\n    \n    // Contract owner can change who is the contract owner\n    function changeOwners(address newOwner) public ownerOnly() {\n        owner = newOwner;\n    }\n    \n    /* ## PRIVATE FUNCTIONS ## */\n    \n    // Function which wraps payouts for setColors\n    function _tryTriggerPayout(uint16 propertyID, uint256 pxlToSpend) private returns(bool) {\n        var (propertyFlag, propertyIsInPrivateMode, propertyOwner, propertyLastUpdater, propertySalePrice, propertyLastUpdate, propertyBecomePublic, propertyEarnUntil) = pxlProperty.properties(propertyID);\n        //If the Property is in private mode and expired, make it public\n        if (propertyIsInPrivateMode && propertyBecomePublic <= now) {\n            pxlProperty.setPropertyPrivateMode(propertyID, false);\n            propertyIsInPrivateMode = false;\n        }\n        //If its in private mode, only the owner can interact with it\n        if (propertyIsInPrivateMode) {\n            require(msg.sender == propertyOwner);\n            require(propertyFlag != 2);\n        //If if its in free-use mode\n        } else if (propertyBecomePublic <= now || propertyLastUpdater == msg.sender) {\n            uint256 pxlSpent = pxlToSpend + 1; //All pxlSpent math uses N+1, so built in for convenience\n            if (isInGracePeriod() && pxlToSpend < 2) { //If first 3 days and we spent <2 coins, treat it as if we spent 2\n                pxlSpent = 3; //We're treating it like 2, but it's N+1 in the math using this\n            }\n            \n            uint256 projectedAmount = getProjectedPayout(propertyIsInPrivateMode, propertyLastUpdate, propertyEarnUntil);\n            pxlProperty.burnPXLRewardPXLx2(msg.sender, pxlToSpend, propertyLastUpdater, projectedAmount, propertyOwner, projectedAmount);\n            \n            //BecomePublic = (N+1)/2 minutes of user-private mode\n            //EarnUntil = (N+1)*5 coins earned max/minutes we can earn from\n            pxlProperty.setPropertyBecomePublicEarnUntil(propertyID, now + (pxlSpent * PROPERTY_GENERATION_PAYOUT_INTERVAL / 2), now + (pxlSpent * 5 * PROPERTY_GENERATION_PAYOUT_INTERVAL));\n        } else {\n            return false;\n        }\n        pxlProperty.setPropertyLastUpdaterLastUpdate(propertyID, msg.sender, now);\n        return true;\n    }\n    // Transfer ownership of a Property and reset their info\n    function _transferProperty(uint16 propertyID, address newOwner, uint256 ethAmount, uint256 PXLAmount, uint8 flag, address oldOwner) private {\n        require(newOwner != 0);\n        pxlProperty.setPropertyOwnerSalePricePrivateModeFlag(propertyID, newOwner, 0, false, flag);\n        PropertyBought(propertyID, newOwner, ethAmount, PXLAmount, now, oldOwner);\n    }\n    \n    // Gets the (owners address, Ethereum sale price, PXL sale price, last update timestamp, whether its in private mode or not, when it becomes public timestamp, flag) for a Property\n    function getPropertyData(uint16 propertyID) public validPropertyID(propertyID) view returns(address, uint256, uint256, uint256, bool, uint256, uint32) {\n        return pxlProperty.getPropertyData(propertyID, systemSalePriceETH, systemSalePricePXL);\n    }\n    \n    // Gets the system ETH and PXL prices\n    function getSystemSalePrices() public view returns(uint256, uint256) {\n        return (systemSalePriceETH, systemSalePricePXL);\n    }\n    \n    // Gets the sale prices of any Property in ETH and PXL\n    function getForSalePrices(uint16 propertyID) public validPropertyID(propertyID) view returns(uint256, uint256) {\n        if (pxlProperty.getPropertyOwner(propertyID) == 0) {\n            return getSystemSalePrices();\n        } else {\n            return (0, pxlProperty.getPropertySalePrice(propertyID));\n        }\n    }\n    \n    // Gets the projected sale price for a property should it be triggered at this very moment\n    function getProjectedPayout(uint16 propertyID) public view returns(uint256) {\n        var (propertyIsInPrivateMode, propertyLastUpdate, propertyEarnUntil) = pxlProperty.getPropertyPrivateModeLastUpdateEarnUntil(propertyID);\n        return getProjectedPayout(propertyIsInPrivateMode, propertyLastUpdate, propertyEarnUntil);\n    }\n    \n    function getProjectedPayout(bool propertyIsInPrivateMode, uint256 propertyLastUpdate, uint256 propertyEarnUntil) public view returns(uint256) {\n        if (!propertyIsInPrivateMode && propertyLastUpdate != 0) {\n            uint256 earnedUntil = (now < propertyEarnUntil) ? now : propertyEarnUntil;\n            uint256 minutesSinceLastColourChange = (earnedUntil - propertyLastUpdate) / PROPERTY_GENERATION_PAYOUT_INTERVAL;\n            return minutesSinceLastColourChange * PROPERTY_GENERATES_PER_MINUTE;\n            //return (((now < propertyEarnUntil) ? now : propertyEarnUntil - propertyLastUpdate) / PROPERTY_GENERATION_PAYOUT_INTERVAL) * PROPERTY_GENERATES_PER_MINUTE; //Gave too high number wtf?\n        }\n        return 0;\n    }\n    \n    // Gets whether the contract is still in the intial grace period where we give extra features to color setters\n    function isInGracePeriod() public view returns(bool) {\n        return now <= GRACE_PERIOD_END_TIMESTAMP;\n    }\n}\n",
  "sourcePath": "/Users/jaegarsarauer/Documents/DATA/CajartyComputing/Projects/PixelRealEstate/contracts/VirtualRealEstate.sol",
  "compiler": {
    "name": "solc",
    "version": "0.4.18+commit.9cf6e910.Emscripten.clang"
  },
  "schemaVersion": "1.0.1",
  "updatedAt": "2018-05-17T10:48:26.086Z"
}