{
  "_format": "hh-sol-artifact-1",
  "contractName": "Killable",
  "sourceName": "contracts/zeppelin/lifecycle/Killable.sol",
  "abi": [
    {
      "constant": false,
      "inputs": [],
      "name": "kill",
      "outputs": [],
      "payable": false,
      "stateMutability": "nonpayable",
      "type": "function"
    },
    {
      "constant": true,
      "inputs": [],
      "name": "owner",
      "outputs": [
        {
          "name": "",
          "type": "address"
        }
      ],
      "payable": false,
      "stateMutability": "view",
      "type": "function"
    },
    {
      "constant": false,
      "inputs": [
        {
          "name": "newOwner",
          "type": "address"
        }
      ],
      "name": "transferOwnership",
      "outputs": [],
      "payable": false,
      "stateMutability": "nonpayable",
      "type": "function"
    }
  ],
  "bytecode": "0x606060405260008054600160a060020a033316600160a060020a0319909116179055610172806100306000396000f3006060604052600436106100565763ffffffff7c010000000000000000000000000000000000000000000000000000000060003504166341c0e1b5811461005b5780638da5cb5b14610070578063f2fde38b1461009f575b600080fd5b341561006657600080fd5b61006e6100be565b005b341561007b57600080fd5b6100836100e5565b604051600160a060020a03909116815260200160405180910390f35b34156100aa57600080fd5b61006e600160a060020a03600435166100f4565b60005433600160a060020a03908116911614156100e357600054600160a060020a0316ff5b565b600054600160a060020a031681565b60005433600160a060020a039081169116141561014357600160a060020a03811615610143576000805473ffffffffffffffffffffffffffffffffffffffff1916600160a060020a0383161790555b505600a165627a7a7230582015a40576257c66b8d6d0f769b5e3dd822a7a0854b6eeaa78cb387c0b553bcf3a0029",
  "linkReferences": {},
  "deployedLinkReferences": {}
}