{
  "_format": "hh-sol-artifact-1",
  "contractName": "Authentication",
  "sourceName": "contracts/Authentication.sol",
  "abi": [
    {
      "constant": false,
      "inputs": [],
      "name": "kill",
      "outputs": [],
      "payable": false,
      "stateMutability": "nonpayable",
      "type": "function"
    },
    {
      "constant": false,
      "inputs": [
        {
          "name": "name",
          "type": "bytes32"
        }
      ],
      "name": "signup",
      "outputs": [
        {
          "name": "",
          "type": "bytes32"
        }
      ],
      "payable": true,
      "stateMutability": "payable",
      "type": "function"
    },
    {
      "constant": false,
      "inputs": [
        {
          "name": "name",
          "type": "bytes32"
        }
      ],
      "name": "update",
      "outputs": [
        {
          "name": "",
          "type": "bytes32"
        }
      ],
      "payable": true,
      "stateMutability": "payable",
      "type": "function"
    },
    {
      "constant": true,
      "inputs": [],
      "name": "owner",
      "outputs": [
        {
          "name": "",
          "type": "address"
        }
      ],
      "payable": false,
      "stateMutability": "view",
      "type": "function"
    },
    {
      "constant": true,
      "inputs": [],
      "name": "login",
      "outputs": [
        {
          "name": "",
          "type": "bytes32"
        }
      ],
      "payable": false,
      "stateMutability": "view",
      "type": "function"
    },
    {
      "constant": false,
      "inputs": [
        {
          "name": "newOwner",
          "type": "address"
        }
      ],
      "name": "transferOwnership",
      "outputs": [],
      "payable": false,
      "stateMutability": "nonpayable",
      "type": "function"
    }
  ],
  "bytecode": "0x606060405260008054600160a060020a033316600160a060020a03199091161790556102f6806100306000396000f3006060604052600436106100775763ffffffff7c010000000000000000000000000000000000000000000000000000000060003504166341c0e1b5811461007c5780635c1397de146100915780638b147245146100ae5780638da5cb5b146100b9578063b34e97e8146100e8578063f2fde38b146100fb575b600080fd5b341561008757600080fd5b61008f61011a565b005b61009c600435610141565b60405190815260200160405180910390f35b61009c6004356101b4565b34156100c457600080fd5b6100cc610228565b604051600160a060020a03909116815260200160405180910390f35b34156100f357600080fd5b61009c610237565b341561010657600080fd5b61008f600160a060020a0360043516610278565b60005433600160a060020a039081169116141561013f57600054600160a060020a0316ff5b565b60008180151561015057600080fd5b600160a060020a033316600090815260016020526040902054151561019257600160a060020a03331660009081526001602052604090208390558291506101ae565b600160a060020a03331660009081526001602052604090205491505b50919050565b6000818015156101c357600080fd5b600160a060020a03331660009081526001602052604090205415156101e757600080fd5b600160a060020a033316600090815260016020526040902054156101ae57600160a060020a03331660009081526001602052604090208390558291506101ae565b600054600160a060020a031681565b600160a060020a033316600090815260016020526040812054151561025b57600080fd5b50600160a060020a03331660009081526001602052604090205490565b60005433600160a060020a03908116911614156102c757600160a060020a038116156102c7576000805473ffffffffffffffffffffffffffffffffffffffff1916600160a060020a0383161790555b505600a165627a7a72305820337872c427a7639fb719d4c23173c4112657e2a989ff69fd7014a2857701015a0029",
  "linkReferences": {},
  "deployedLinkReferences": {}
}